:100000000C9473000C949B000C949B000C949B002C
:100010000C949B000C949B000C949B000C949B00F4
:100020000C949B000C949B000C949B000C949B00E4
:100030000C949B000C949B000C949B000C949B00D4
:100040000C9494090C949B000C94F10B0C94340CBC
:100050000C949B000C949B000C949B000C949B00B4
:100060000C949B000C949B00AE062207F506D80664
:100070004A074A07AA064A07AA064A07AA06AA067C
:10008000AA064A07AA06AA06000000070002010005
:100090000003040600000000000000000102040844
:1000A00010204080010204081020010204081020E2
:1000B000040404040404040402020202020203030E
:1000C00003030303000000002300260029000000B2
:1000D0000000250028002B0000000000240027005D
:1000E0002A000A09F90C11241FBECFEFD8E0DEBFA9
:1000F000CDBF11E0A0E0B1E0ECEBFAE102C0059069
:100100000D92AE32B107D9F718E0AEE2B1E001C00E
:100110001D92A736B107E1F710E0C6EED0E004C0AB
:100120002297FE010E94580DC23ED107C9F70E94D6
:100130004A0B0C945C0D0C940000DC01ED91FC91D9
:100140000190F081E02D099460E0809114010E94FB
:10015000C90A2AEA41E060911001809112010E94CF
:1001600059092AEA41E060911001809112010E9430
:1001700059092AEA41E060911001809112010E9420
:1001800059092AEA41E060911001809112010E9410
:1001900059092AEA41E060911001809112010E9400
:1001A00059092AEA41E060911001809112010E94F0
:1001B000590961E0809114010E94C90A68EE73E058
:1001C00080E090E00E94030A60E0809114010E94A8
:1001D000C90A25E541E060911001809112010E9459
:1001E000590925E541E060911001809112010E94BA
:1001F000590925E541E060911001809112010E94AA
:10020000590925E541E060911001809112010E9499
:10021000590925E541E060911001809112010E9489
:10022000590925E541E060911001809112010E9479
:10023000590961E0809114010E94C90A68EE73E0D7
:1002400080E090E00E94030A80917C0690917D06F8
:10025000019690937D0680937C0607970CF474CFEB
:1002600060E0809114010E94C90A20E041E06091A1
:100270001001809112010E94590920E041E0609133
:100280001001809112010E94590920E041E0609123
:100290001001809112010E94590920E041E0609113
:1002A0001001809112010E94590920E041E0609103
:1002B0001001809112010E94590920E041E06091F3
:1002C0001001809112010E94590961E0809114018E
:1002D0000C94C90ACF93DF9361E080911C010E94C6
:1002E0008D0A61E080911A010E948D0A60E0809180
:1002F00018010E948D0A61E0809116010E948D0A0A
:1003000061E0809114010E948D0A61E080911201E8
:100310000E948D0A61E0809110010E948D0ACEE753
:10032000D6E042E15AE760E070E08091B207909138
:10033000B3070E946F0C1092B10785E08983188281
:1003400018861F821E821D8210928B071B861A86BA
:1003500019861C861D861092B007DF91CF910C94F0
:10036000A400CF93DF93C4E8D1E0E0E0F1E0DF0147
:1003700080E090E0699179914D915D91649F900149
:10038000659F300D749F300D1124820F931F21E063
:10039000A031B20779F790932F0180932E01C4E921
:1003A000D1E0A0E0B1E080E090E0699179914D91D9
:1003B0005D91649F9001659F300D749F300D1124F5
:1003C000820F931F21E0A031B20779F7909331019A
:1003D00080933001C4EAD1E0A0E0B1E080E090E099
:1003E000699179914D915D91649F9001659F300D68
:1003F000749F300D1124820F931F21E0A031B207AA
:1004000079F79093330180933201C4EBD1E0A0E0FF
:10041000B1E080E090E0699179914D915D91649FA8
:100420009001659F300D749F300D1124820F931F32
:1004300021E0A031B20779F7909335018093340120
:10044000C4ECD1E0A0E0B1E080E090E06991799166
:100450004D915D91649F9001659F300D749F300DAB
:100460001124820F931F21E0A031B20779F79093F6
:10047000370180933601A4EDB1E080E090E06D910A
:100480007D9141915191649F9001659F300D749FC2
:10049000300D1124820F931F21E0E031F20779F72C
:1004A00090933B0180933A019093390180933801F6
:1004B00060E0809114010E94C90A2091380141E056
:1004C00060911001809112010E945909209136011A
:1004D00041E060911001809112010E945909209120
:1004E000340141E060911001809112010E9459098C
:1004F0002091320141E060911001809112010E942F
:1005000059092091300141E0609110018091120160
:100510000E94590920912E0141E0609110018091C3
:1005200012010E94590961E080911401DF91CF917D
:100530000C94C90AE62FF0E0EE0FFF1FE45CFE4FBB
:1005400081E090E0918380830C94B101E62FF0E08C
:10055000EE0FFF1FE45CFE4F118210820C94B1017C
:100560000F931F93CF93DF938C01EB016D3F7105C8
:1005700054F46A3F710564F4663F710549F0683FC1
:10058000710599F405C0CB018E5F9109029768F45B
:10059000F801EC5CFE4F80819181DC01ED91FC91D2
:1005A0000190F081E02D6C2F0995C63FD10521F413
:1005B000F801ED5CFE4F1082DF91CF911F910F91FA
:1005C0000895DF92EF92FF920F931F93CF93DF93E3
:1005D0007B01122F0150003118F4603871052CF4A2
:1005E000FC01ED5CFE4F10824BC0613E7105CCF505
:1005F0004F77D42E602F6E29FC01ED5CFE4F2081D9
:10060000EC01CC5CDE4F261751F060838881998124
:10061000DC01ED91FC910190F081E02D099588813C
:100620009981DC01ED91FC910190F081E02D6D2D1F
:100630000995E894E4F8B0ECEB16F10409F188812F
:100640009981DC01ED91FC91612F6F770190F08130
:10065000E02DDF91CF911F910F91FF90EF90DF90F0
:1006600009949B01265F31092A30310548F4DF9156
:10067000CF911F910F91FF90EF90DF900C94B002FB
:10068000DF91CF911F910F91FF90EF90DF90089530
:10069000DC011A968D919C911B97813F910509F47D
:1006A000A9C034F5803B910509F453C07CF480392E
:1006B0009105E1F1803A910509F469C0803891050E
:1006C00009F0C6C0FD01E25FFE4F64C0803D9105A8
:1006D00009F46FC02CF4803C910509F46EC00895B4
:1006E000803E9105D1F1803F910509F475C00895D0
:1006F0008A3F910511F174F4833F910509F493C089
:100700000CF47CC0863F910509F498C0883F9105A0
:1007100089F008958C3F9105B1F094F08E3F9105DA
:10072000A9F08F3F910509F48CC00895FD01E05FA9
:10073000FE4F30C0AA5DBE4F86C0A85DBE4F83C0CD
:10074000A65DBE4F80C0A45DBE4F7DC0A25DBE4F02
:100750007AC0FD01EC5EFE4F1DC0FD01E65EFE4F5E
:100760000190F081E02D309709F472C01D966C91D4
:100770001D976F7720E8629FB00111241C968C9121
:100780001C978F77682B705219968C910994FD01F4
:10079000EE5EFE4F0190F081E02D309709F458C0D5
:1007A0001D964C911D971C966C911C9719968C91D7
:1007B0000994FD01E85EFE4F03C0FD01EA5EFE4FB5
:1007C0000190F081E02D309709F442C01C966C91A5
:1007D0001C9719968C910994FD01E45EFE4F0190DF
:1007E000F081E02D3097A1F11C966C911C97CD0102
:1007F0000E960994FD01E25EFE4F18C0FD01E05E19
:10080000FE4F0190F081E02D309711F11D968C91F3
:100810001D978F7720E8829FC00111241C962C9190
:100820002F77822B0994FD01EE5DFE4F0190F08140
:10083000E02D309769F01C968C910994AC5DBE4F09
:1008400002C0A05DBE4FED91FC91309709F0099474
:1008500008959C018F7C8038910561F0203D310521
:1008600049F081E0203E310539F0203C310521F08E
:1008700080E0089581E00895089587FF0DC09CE011
:10088000980F923048F0982F9B7F993F29F0803F36
:1008900008F4807F90E0089580E090E008952F9222
:1008A0003F924F925F926F927F928F929F92AF9200
:1008B000BF92CF92DF92EF92FF920F931F93CF934D
:1008C000DF931F92CDB7DEB71C018C010C5C1E4F6D
:1008D00082E0E82EF12C93E0C92ED12CAA24AA9410
:1008E000B12C30EF532E88248394912CD8018D9114
:1008F0009C91DC01ED91FC910480F581E02D09953E
:10090000892B09F4A4C1F80180819181DC01ED916A
:10091000FC910680F781E02D09953C01F1012781CA
:1009200030852115310509F0CAC082834080842DAD
:100930000E943D040E942904882369F067FC0BC0D3
:10094000D10112964C92129713966C9213971896A7
:100950009C928E921797F1017280872D0E943D0420
:10096000813F910509F45EC06CF5803B910509F467
:100970005FC06CF48039910509F45AC0803A910542
:1009800009F456C08038910509F056C051C0803D29
:10099000910509F447C02CF4803C910509F442C04C
:1009A0004BC0803E910509F443C0803F910509F09A
:1009B00043C0D1011696BC92AE9215971C921E961A
:1009C0005C9241C0883F9105A9F044F4833F9105B2
:1009D00049F174F1863F910569F02EC08A3F910577
:1009E0005CF18D3F910534F09C012E5F310922307E
:1009F000310510F5D1011B969C938E931A97199689
:100A00001C9219971C961C921C971D961C92F10122
:100A1000E35FFE4F81E08083F1011086178216822A
:100A2000158216C1D1011696FC92EE9215970BC055
:100A3000F101D682C58207C0F101108617821682A5
:100A40001582108204C1D10117962D913C911897FF
:100A500015964D915C911697BA0161507109261750
:100A6000370738F11B969C938E931A97872D8F70BA
:100A700077247394780E19967C92199713968C911B
:100A800013971C968C931C974330510531F41496A0
:100A90008C9114971D968C9302C0F1011586D1019B
:100AA00018961C921E92179716961C921E921597D6
:100AB0002AC02F5F3F4FF1013087278317CF87FF71
:100AC0004DC099278D3F91055CF48A3F910574F4E0
:100AD000873F9105F1F0883F910509F03FC006C0BE
:100AE000AC014E5F510942305105C0F5D1011B9652
:100AF0009C938E931A971C961C921C971D961C9281
:100B00001D9719961C92F101E35FFE4F81E08083EF
:100B10009FC0F1018685803FB9F5C9010196E20FBA
:100B2000F31F47EF468720EF30E0D1011B963C933F
:100B30002E931A971C968C931C971D969C931D9729
:100B400019961C92F101E35FFE4F81E08083F10171
:100B5000108617821682158210827AC0F101828176
:100B6000E20FF31F803FD9F46686D10115966D9090
:100B70007C901697C30101972817390708F45FC0C6
:100B800012962C91203F69F4D10118961C921E9266
:100B9000179716961C921E9215971C9258C0628247
:100BA000E4CF822F29830E943D048C01F1019387B9
:100BB00082870E9429042981882339F0822F8F702F
:100BC0008F5FD10119968C9302C0F1011186D1017A
:100BD00013968C9113971C968C93B3E06B1671044B
:100BE00021F4F1018481858703C0D1011D961C92F7
:100BF000F101108617821682158281E0E35FFE4FB5
:100C00008083003B1105A1F054F40039110581F0F7
:100C1000003A110569F00038110569F409C0003D7A
:100C2000110531F0003E110519F0003C110519F4D1
:100C3000D1012C9302C0F101108281E009C02F5F25
:100C40003F4FD10118963C932E9317974FCE80E0DB
:100C50000F90DF91CF911F910F91FF90EF90DF9058
:100C6000CF90BF90AF909F908F907F906F905F904C
:100C70004F903F902F900895AF92BF92CF92DF9206
:100C8000FF920F931F93CF93DF93DC0111962C916A
:100C9000213110F0F12C01C1EC010E944F04F82E1B
:100CA0008823C1F38A859B858039910519F48D8548
:100CB000882391F06A857B856115710559F3AB0135
:100CC000405851094136510560F48981998598173A
:100CD00041F08111DFCF05C080E890E09B878A87D3
:100CE000E9CFFE01EE5CFE4F8081282F217080FF4E
:100CF000D1C08E7F09F4CEC04136510500F509857B
:100D00008981081719F021E0811120E08081869502
:100D100090E08230910539F08330910541F00197E0
:100D200009F0B8C006C0222309F4B4C002C02111E2
:100D3000B1C02D854C85CE010E94E102ABC0FB0104
:100D4000E05FF109E031F10508F0A4C0EC5CFF4F71
:100D50000C94560DCE010E94B0029CC08E01025F21
:100D60001F4F68014D8550E0542F44278C859A0110
:100D7000282B2F3F310519F010F02FEF30E0020F34
:100D8000131F5E01BCECAB1ABEEFBB0AC016D10646
:100D900009F47CC0F50180819181D6016D916D01CE
:100DA000DC01ED91FC910190F081E02D0995EECFF1
:100DB0001C856E01BCECCB1ABEEFDB0AF60180810C
:100DC0009181DC01ED91FC910190F081E02D63EFC8
:100DD0000995F60180819181DC01ED91FC91612FF3
:100DE0006F770190F081E02D50C00D85B0E80B9F2A
:100DF000800111248C85082B6E01ECECCE1AEEEFED
:100E0000DE0AD6018D919C91DC01ED91FC9101905F
:100E1000F081E02D62EF0995B8016F777727F60131
:100E2000808191810E949D00B801660F672F661F27
:100E3000770B71956F777727D6018D919C910E94E2
:100E40009D0024C02C852770B0E12B9F90011124B8
:100E50001D851F70122B6E01ECECCE1AEEEFDE0A30
:100E6000D6018D919C91DC01ED91FC910190F08176
:100E7000E02D61EF0995F60180819181DC01ED9112
:100E8000FC910190F081E02D612F0995FE01ED5C50
:100E9000FE4F1082CE010E9448038F2DDF91CF912B
:100EA0001F910F91FF90DF90CF90BF90AF9008956A
:100EB0002F923F924F925F926F927F928F929F926A
:100EC000AF92BF92CF92DF92EF92FF920F931F9358
:100ED000CF93DF9300D000D000D0CDB7DEB71E8215
:100EE0001D82612C712C21E030E0062C01C0220F04
:100EF0000A94EAF741E060911A0180911C010E9476
:100F0000590960E0809116010E94C90A61E0809150
:100F100016010E94C90A6CE7E62E66E0F62E0CE385
:100F200016E060E0809110010E94C90A80911801CA
:100F30000E94F90AF701929382937F0161E0809108
:100F400010010E94C90AFCE3EF16F6E0FF0649F71C
:100F500080E090E0F801219131918F01ED81FE81D7
:100F6000E80FF91FE454FA4F318320830296803151
:100F7000910581F780E090E0ED81FE81E80FF91F97
:100F8000E454FB4FDC01A45CB94F50962D913C9189
:100F900051973183208302968031910569F780E073
:100FA00090E0ED81FE81E80FF91FE454FC4FDC0175
:100FB000A45CB94F90962D913C91919731832083F9
:100FC00002968031910569F780E090E0ED81FE8125
:100FD000E80FF91FE454FD4FDC01A45CB94FD09633
:100FE0002D913C91D19731832083029680319105D8
:100FF00069F78CEB95E09C838B838CEB482E82E029
:10100000582E9CE3892E92E0992E2CEB222E23E081
:10101000322E3CE3A32E33E0B32EECEBF4E0FA8364
:10102000E9834CE3C42E44E0D42E5CE3E52E55E086
:10103000F52E14E2EB81FC8180819181F7018130F2
:10104000910551F4808191810197D9F001E024E666
:10105000412F60E970E00AC0208131818217930737
:1010600081F001E020E0412F60E870E08EE796E03B
:101070000E94E102EB81FC8180819181F7019183E3
:101080008083E981FA8180819181F6018130910527
:1010900051F4808191810197D9F002E024E6412F3B
:1010A00060E970E00AC0208131818217930781F0E6
:1010B00002E020E0412F60E870E08EE796E00E94B9
:1010C000E102E981FA8180819181F6019183808337
:1010D000F10180819181F5018130910551F4808188
:1010E00091810197D1F003E024E6412F60E970E09F
:1010F0000AC0208131818217930779F003E020E054
:10110000412F60E870E08EE796E00E94E102F10175
:1011100080819181F50191838083F20180819181A9
:10112000F4018130910551F4808191810197D1F0D2
:1011300004E024E6412F60E970E00AC0208131819B
:101140008217930779F004E020E0412F60E870E017
:101150008EE796E00E94E102F20180819181F40124
:10116000918380838B819C8102969C838B831F5FFC
:1011700092E0490E511CE2E08E0E911CF2E02F0E1F
:10118000311C82E0A80EB11CE981FA813296FA8303
:10119000E983F2E0CF0ED11C82E0E80EF11C143698
:1011A00009F048CF9FEF691A790AED81FE817096A8
:1011B000FE83ED83F8E06F16710409F094CE8EE79C
:1011C00096E00E943C06882361F08AE992E09093C1
:1011D0008F0780938E0786EA92E090938D07809325
:1011E0008C0726960FB6F894DEBF0FBECDBFDF91F9
:1011F000CF911F910F91FF90EF90DF90CF90BF9014
:10120000AF909F908F907F906F905F904F903F90A6
:101210002F9008958DEB97E09093B3078093B207DA
:1012200010928D0710928C0710928F0710928E07E4
:1012300010929107109290071092930710929207C4
:1012400010929507109294071092970710929607A4
:10125000109299071092980710929B0710929A0784
:1012600010929D0710929C0710929F0710929E0764
:101270001092A1071092A0071092A3071092A20744
:101280001092A5071092A4071092A7071092A60724
:101290001092A9071092A8071092AB071092AA0704
:1012A0001092AD071092AC071092AF071092AE07E4
:1012B0000895BF92CF92DF92EF92FF920F931F9308
:1012C000CF93DF93C82ED62EB42EC7E0D0E0022FE6
:1012D00010E087E0E82EF12CB11005C0C7018C1B8F
:1012E0009D0B980102C098018C2F02C0359527955F
:1012F0008A95E2F7B901617077278C2D0E94C90A9F
:1013000061E08D2D0E94C90A60E08D2D0E94C90AFE
:10131000219710F7DF91CF911F910F91FF90EF90E0
:10132000DF90CF90BF9008951F920F920FB60F924B
:1013300011242F933F938F939F93AF93BF938091EB
:10134000B5079091B607A091B707B091B807309153
:10135000B40723E0230F2D3720F40196A11DB11D02
:1013600005C026E8230F0296A11DB11D2093B407E6
:101370008093B5079093B607A093B707B093B807CB
:101380008091B9079091BA07A091BB07B091BC07B3
:101390000196A11DB11D8093B9079093BA07A09340
:1013A000BB07B093BC07BF91AF919F918F913F91C5
:1013B0002F910F900FBE0F901F9018953FB7F89484
:1013C0008091B9079091BA07A091BB07B091BC0773
:1013D00026B5A89B05C02F3F19F00196A11DB11D90
:1013E0003FBFBA2FA92F982F8827820F911DA11DCB
:1013F000B11DBC01CD0142E0660F771F881F991F08
:101400004A95D1F70895CF92DF92EF92FF92CF9352
:10141000DF936B017C010E94DE09EB01C114D10452
:10142000E104F10479F00E94DE096C1B7D0B683E3B
:101430007340A0F381E0C81AD108E108F108C8514F
:10144000DC4FECCFDF91CF91FF90EF90DF90CF900A
:101450000895789484B5826084BD84B5816084BD2C
:1014600085B5826085BD85B5816085BDEEE6F0E01D
:10147000808181608083E1E8F0E010828081826079
:101480008083808181608083E0E8F0E080818160FA
:101490008083E1EBF0E0808184608083E0EBF0E02A
:1014A000808181608083EAE7F0E0808184608083CE
:1014B0008081826080838081816080838081806878
:1014C00080831092C1000895833081F028F4813028
:1014D00099F08230A1F008958630A9F08730B9F0F4
:1014E0008430D1F4809180008F7D03C08091800092
:1014F0008F7780938000089584B58F7702C084B57C
:101500008F7D84BD08958091B0008F7703C0809156
:10151000B0008F7D8093B0000895CF93DF9390E06B
:10152000FC01E456FF4F2491FC01E055FF4F8491EC
:10153000882361F190E0880F991FFC01E852FF4F6A
:10154000C591D491FC01E253FF4FA591B491611173
:1015500009C09FB7F8948881209582238883EC91F5
:101560002E230BC0623061F49FB7F8943881822F2C
:10157000809583238883EC912E2B2C939FBF06C0EC
:101580008FB7F894E8812E2B28838FBFDF91CF91FE
:1015900008951F93CF93DF93282F30E0F901E85788
:1015A000FF4F8491F901E456FF4FD491F901E055C2
:1015B000FF4FC491CC23C9F0162F81110E94640AF9
:1015C000EC2FF0E0EE0FFF1FE253FF4FA591B49117
:1015D0008FB7F894111105C09C91ED2FE095E92388
:1015E00002C0EC91ED2BEC938FBFDF91CF911F9157
:1015F0000895CF93DF93282F30E0F901E857FF4F8C
:101600008491F901E456FF4FD491F901E055FF4F61
:10161000C491CC2391F081110E94640AEC2FF0E078
:10162000EE0FFF1FEC53FF4FA591B491EC91ED230A
:1016300081E090E021F480E002C080E090E0DF9162
:10164000CF910895CF92DF92EF92FF920F931F9365
:10165000CF93DF936C01EB017B01E40EF51E00E0FC
:1016600010E0CE15DF0561F06991D601ED91FC9196
:101670000190F081E02DC6010995080F191FF1CFE7
:10168000C801DF91CF911F910F91FF90EF90DF90F4
:10169000CF9008950E94290A0E946A01CBE2DCE003
:1016A0000E9458072097E1F30E942B0CF9CFFC0110
:1016B00024853585F901E05CFF4F80819181329668
:1016C00020813181821B930B8F7399270895DC0150
:1016D0001C96ED91FC911D97DF01A05CBF4F2D91F1
:1016E0003C91119712968D919C911197281739076B
:1016F00039F08D919C91E80FF91F808190E0089559
:101700008FEF9FEF0895FC01A485B585FD01E05C96
:10171000FF4F2081318132968081918128173907CE
:1017200079F080819181A80FB91F8C91208131813E
:101730002F5F3F4F2F7333273183208390E008952D
:101740008FEF9FEF0895FC0181A1882329F0A489E0
:10175000B5898C9186FFFBCF11A208950F931F933B
:10176000CF93DF93FC01A685B7858D01005C1F4FE9
:10177000E8018881998101968F739927AD014E5BAD
:101780005F4FEA012881398182179307D1F3E8017D
:1017900028813981A20FB31F6C93A685B785A05C01
:1017A000BF4F11969C938E93A689B7892C9181E0A7
:1017B00090E0078C02C0880F991F0A94E2F7822BF1
:1017C0008C9381E081A30488F589E02D8081806479
:1017D000808381E090E0DF91CF911F910F91089578
:1017E00008951F920F920FB60F9211242F934F93CB
:1017F0005F938F939F93EF93FF938091C00082FD3F
:101800001CC02091C60080916308909164080196E5
:101810008F73992740916508509166088417950742
:1018200071F0E0916308F0916408ED5DF74F20835B
:10183000909364088093630802C08091C600FF9172
:10184000EF919F918F915F914F912F910F900FBECC
:101850000F901F9018958DEB97E00E94570B892BE6
:1018600011F00C94F00B08951F920F920FB60F9287
:1018700011242F933F938F939F93EF93FF93209186
:101880001F08309120088091210890912208281784
:10189000390731F48091C1008F7D8093C10014C05D
:1018A000E0912108F0912208E152F84F20818091C7
:1018B00021089091220801968F739927909322080E
:1018C000809321082093C600FF91EF919F918F9103
:1018D0003F912F910F900FBE0F901F901895CF92B0
:1018E000DF92EF92FF920F931F93CF93DF93EC0160
:1018F0006A017B01411581EE58076105710511F1FF
:10190000EC89FD8981E090E008A002C0880F991F52
:101910000A94E2F7808360E079E08DE390E0A7012C
:1019200096010E94340D89019A0101501109210983
:10193000310936952795179507959801011580E18E
:101940001807A8F0EC89FD89108260E874E88EE140
:1019500090E0A70196010E94340DDA01C9010197B8
:10196000A109B109B695A795979587959C01E88936
:10197000F9893083EA89FB89208319A2EE89FF89DE
:10198000408181E090E09C010C8C02C0220F331F4B
:101990000A94E2F7242B2083EE89FF8940819C0181
:1019A0000D8C02C0220F331F0A94E2F7242B2083F0
:1019B000EE89FF8940819C010E8C02C0220F331FEB
:1019C0000A94E2F7242B2083EE89FF8920810F8C73
:1019D00002C0880F991F0A94E2F7809582238083C2
:1019E000DF91CF911F910F91FF90EF90DF90CF90FB
:1019F0000895EDEBF7E01382128288EE93E0A0E009
:101A0000B0E084839583A683B78382E291E09183DB
:101A1000808383E298E0958784878FED97E09787AE
:101A2000868785EC90E0918B808B84EC90E0938BA3
:101A3000828B80EC90E0958B848B81EC90E0978B8F
:101A4000868B82EC90E0918F808F86EC90E0938F74
:101A5000828F84E0848F83E0858F87E0868F85E0A6
:101A6000878F81E080A30895A1E21A2EAA1BBB1BD9
:101A7000FD010DC0AA1FBB1FEE1FFF1FA217B3075A
:101A8000E407F50720F0A21BB30BE40BF50B661F70
:101A9000771F881F991F1A9469F760957095809534
:101AA00090959B01AC01BD01CF010895EE0FFF1F82
:0C1AB0000590F491E02D0994F894FFCF0C
:101ABC00010002000400080010002000400080001B
:101ACC000D000B0009000A000C00030002000000CE
:0E1ADC000000AE0B220B570B830B670BA30B06
:00000001FF
