:100000000C9462000C948A000C948A000C948A0070
:100010000C948A000C948A000C948A000C948A0038
:100020000C948A000C948A000C948A000C948A0028
:100030000C948A000C948A000C948A000C948A0018
:100040000C9451050C948A000C940E040C945104E9
:100050000C948A000C948A000C948A000C948A00F8
:100060000C948A000C948A00000000070002010032
:100070000003040600000000000000000102040864
:100080001020408001020408102001020408102002
:10009000040404040404040402020202020203032E
:1000A00003030303000000002300260029000000D2
:1000B0000000250028002B0000000000240027007D
:1000C0002A00160511241FBECFEFD8E0DEBFCDBF3A
:1000D00011E0A0E0B1E0E0E0FCE002C005900D928C
:1000E000A032B107D9F712E0A0E2B1E001C01D9241
:1000F000A33EB107E1F710E0C4ECD0E004C02297C2
:10010000FE010E94FA05C23CD107C9F70E946703AD
:100110000C94FE050C94000040E855E260E070E0AD
:1001200080E392E00E948C0461E0809108010E94CB
:10013000BE0161E0809106010E94BE0160E08091F5
:1001400004010E94BE0161E0809102010E94BE0193
:1001500061E0809100010C94BE018F929F92AF925A
:10016000BF92CF92DF92EF92FF920F931F93CF93A4
:10017000DF9390EAA92E91E0B92EC12CD12C8824CE
:100180008394912C94010C2C01C0220F0A94EAF75D
:1001900041E060910601809108010E945A0160E0EF
:1001A000809100010E94FA0161E0809100010E94AB
:1001B000FA01C0E3D2E000E212E060E080910201C7
:1001C0000E94FA01809104010E942A029A938A9364
:1001D00061E0809102010E94FA0182E0C032D807FA
:1001E00061F780E090E0F801219131918F01F501F4
:1001F000E80FF91F3183208302968031910599F72A
:10020000C0E2D1E080EAE82E81E0F82E00E010E0C4
:10021000F701808191818130910571F48881998104
:10022000019739F14AE050E0B80180E392E00E9482
:100230005F036AE071E00EC028813981821793075D
:10024000C1F04AE050E0B80180E392E00E945F0311
:100250006DE071E080E392E00E9490026FE071E057
:1002600080E392E00E94AD02F70180819181998341
:1002700088830F5F1F4FF2E0EF0EF11C22960034CF
:10028000110531F68FEFC81AD80AE0E1AE0EB11CA5
:10029000F8E0CF16D10409F075CFDF91CF911F910F
:1002A0000F91FF90EF90DF90CF90BF90AF909F9015
:1002B0008F900895BF92CF92DF92EF92FF920F93AB
:1002C0001F93CF93DF93C82ED62EB42EC7E0D0E075
:1002D000022F10E087E0E82EF12CB11005C0C70115
:1002E0008C1B9D0B980102C098018C2F02C0359584
:1002F00027958A95E2F7B901617077278C2D0E94C6
:10030000FA0161E08D2D0E94FA0160E08D2D0E94BE
:10031000FA01219710F7DF91CF911F910F91FF9074
:10032000EF90DF90CF90BF900895833081F028F454
:10033000813099F08230A1F008958630A9F087309D
:10034000B9F08430D1F4809180008F7D03C080911A
:1003500080008F7780938000089584B58F7702C0E6
:1003600084B58F7D84BD08958091B0008F7703C0E0
:100370008091B0008F7D8093B0000895CF93DF937C
:1003800090E0FC01E458FF4F2491FC01E057FF4F3F
:100390008491882361F190E0880F991FFC01E85453
:1003A000FF4FC591D491FC01E255FF4FA591B49147
:1003B000611109C09FB7F8948881209582238883B2
:1003C000EC912E230BC0623061F49FB7F894388112
:1003D000822F809583238883EC912E2B2C939FBFB3
:1003E00006C08FB7F894E8812E2B28838FBFDF914A
:1003F000CF9108951F93CF93DF93282F30E0F90119
:10040000E859FF4F8491F901E458FF4FD491F90165
:10041000E057FF4FC491CC23C9F0162F81110E94E1
:100420009501EC2FF0E0EE0FFF1FE255FF4FA59175
:10043000B4918FB7F894111105C09C91ED2FE09500
:10044000E92302C0EC91ED2BEC938FBFDF91CF91AC
:100450001F910895CF93DF93282F30E0F901E859D9
:10046000FF4F8491F901E458FF4FD491F901E0570F
:10047000FF4FC491CC2391F081110E949501EC2F84
:10048000F0E0EE0FFF1FEC55FF4FA591B491EC91FA
:10049000ED2381E090E021F480E002C080E090E074
:1004A000DF91CF910895CF92DF92EF92FF920F9359
:1004B0001F93CF93DF936C01EB017B01E40EF51EDC
:1004C00000E010E0CE15DF0561F06991D601ED91F5
:1004D000FC910190F081E02DC6010995080F191FCC
:1004E000F1CFC801DF91CF911F910F91FF90EF9055
:1004F000DF90CF9008956115710579F0FB010190AF
:100500000020E9F73197AF01461B570BDC01ED9155
:10051000FC910280F381E02D099480E090E0089541
:100520000C947B02DC01ED91FC910190F081E02DB7
:1005300009940F931F93CF93DF93EC016DE00E941A
:1005400092028C016AE0CE010E949202800F911FFC
:10055000DF91CF911F910F9108950F931F93CF9328
:10056000DF93EC010E947B028C01CE010E94990274
:10057000800F911FDF91CF911F910F9108958F925E
:100580009F92AF92BF92CF92DF92EF92FF920F9322
:100590001F93CF93DF93CDB7DEB7A1970FB6F89433
:1005A000DEBF0FBECDBF6C01142FE52FCB01022F94
:1005B00019A2223008F40AE07E0121E2E20EF11CC9
:1005C000802E912CA12CB12C612F7E2FA50194019E
:1005D0000E94D605029F1019112481E0E81AF10843
:1005E0001A3014F4105D01C0195CF7011083122F4A
:1005F000E32FCA01232B242B252B31F7B701C6018A
:100600000E947B02A1960FB6F894DEBF0FBECDBF4D
:10061000DF91CF911F910F91FF90EF90DF90CF90DE
:10062000BF90AF909F908F900895CF92DF92EF92FE
:10063000FF920F931F93CF93DF93EC016A017B012D
:100640002115310579F4E881F9810190F081E02DDF
:10065000642FDF91CF911F910F91FF90EF90DF906A
:10066000CF9009942A303105E9F477FF1AC06DE282
:100670000E9492028C0144275527BA014C195D094A
:100680006E097F092AE0CE010E94BF02800F911FF0
:10069000DF91CF911F910F91FF90EF90DF90CF905E
:1006A00008952AE0B701A601CE01DF91CF911F91F5
:1006B0000F91FF90EF90DF90CF900C94BF029A01C2
:1006C000AB01662757FD6095762F0C9415030E94A9
:1006D0009B050E948C00C8E4D4E00E94AD002097E6
:1006E000E1F30E944804F9CFFC0124853585F90126
:1006F000E05CFF4F80819181329620813181821BA5
:10070000930B8F7399270895DC011C96ED91FC9152
:100710001D97DF01A05CBF4F2D913C911197129660
:100720008D919C9111972817390739F08D919C91E3
:10073000E80FF91F808190E008958FEF9FEF0895F3
:10074000FC01A485B585FD01E05CFF4F208131816E
:100750003296808191812817390779F080819181C3
:10076000A80FB91F8C91208131812F5F3F4F2F73CC
:1007700033273183208390E008958FEF9FEF089512
:10078000FC0181A1882329F0A489B5898C9186FF79
:10079000FBCF11A208950F931F93CF93DF93FC011A
:1007A000A685B7858D01005C1F4FE801888199817E
:1007B00001968F739927AD014E5B5F4FEA01288147
:1007C000398182179307D1F3E80128813981A20F7B
:1007D000B31F6C93A685B785A05CBF4F11969C9301
:1007E0008E93A689B7892C9181E090E0078C02C096
:1007F000880F991F0A94E2F7822B8C9381E081A3E2
:100800000488F589E02D80818064808381E090E018
:10081000DF91CF911F910F91089508951F920F922C
:100820000FB60F9211242F934F935F938F939F9343
:10083000EF93FF938091C00082FD1CC02091C60001
:100840008091D6029091D70201968F73992740919B
:10085000D8025091D9028417950771F0E091D60221
:10086000F091D702EA56FD4F20839093D7028093F0
:10087000D60202C08091C600FF91EF919F918F91A7
:100880005F914F912F910F900FBE0F901F90189571
:1008900080E392E00E947403892B11F00C940D0404
:1008A00008951F920F920FB60F9211242F933F932A
:1008B0008F939F93EF93FF93209192023091930235
:1008C00080919402909195022817390731F4809114
:1008D000C1008F7D8093C10014C0E0919402F0911B
:1008E0009502EE5AFD4F20818091940290919502DD
:1008F00001968F7399279093950280939402209389
:10090000C600FF91EF919F918F913F912F910F9092
:100910000FBE0F901F901895CF92DF92EF92FF922B
:100920000F931F93CF93DF93EC016A017B01411575
:1009300081EE58076105710511F1EC89FD8981E0AF
:1009400090E008A002C0880F991F0A94E2F7808304
:1009500060E079E08DE390E0A70196010E94D60562
:1009600089019A010150110921093109369527950C
:10097000179507959801011580E11807A8F0EC89F3
:10098000FD89108260E874E88EE190E0A70196018D
:100990000E94D605DA01C9010197A109B109B695EE
:1009A000A795979587959C01E889F9893083EA890D
:1009B000FB89208319A2EE89FF89408181E090E0C4
:1009C0009C010C8C02C0220F331F0A94E2F7242BE7
:1009D0002083EE89FF8940819C010D8C02C0220F8B
:1009E000331F0A94E2F7242B2083EE89FF8940818C
:1009F0009C010E8C02C0220F331F0A94E2F7242BB5
:100A00002083EE89FF8920810F8C02C0880F991FF7
:100A10000A94E2F7809582238083DF91CF911F9122
:100A20000F91FF90EF90DF90CF900895E0E3F2E018
:100A30001382128288EE93E0A0E0B0E08483958375
:100A4000A683B78384E191E09183808386E992E075
:100A50009587848782E592E09787868785EC90E08A
:100A6000918B808B84EC90E0938B828B80EC90E078
:100A7000958B848B81EC90E0978B868B82EC90E059
:100A8000918F808F86EC90E0938F828F84E0848FAB
:100A900083E0858F87E0868F85E0878F81E080A364
:100AA00008951F920F920FB60F9211242F933F9328
:100AB0008F939F93AF93BF938091DB029091DC0261
:100AC000A091DD02B091DE023091DA0223E0230F23
:100AD0002D3720F40196A11DB11D05C026E8230F76
:100AE0000296A11DB11D2093DA028093DB02909340
:100AF000DC02A093DD02B093DE028091DF029091D0
:100B0000E002A091E102B091E2020196A11DB11DA7
:100B10008093DF029093E002A093E102B093E2029F
:100B2000BF91AF919F918F913F912F910F900FBEE9
:100B30000F901F901895789484B5826084BD84B519
:100B4000816084BD85B5826085BD85B5816085BDC8
:100B5000EEE6F0E0808181608083E1E8F0E01082E1
:100B6000808182608083808181608083E0E8F0E022
:100B7000808181608083E1EBF0E08081846080830C
:100B8000E0EBF0E0808181608083EAE7F0E0808143
:100B900084608083808182608083808181608083A3
:100BA0008081806880831092C1000895A1E21A2E8E
:100BB000AA1BBB1BFD010DC0AA1FBB1FEE1FFF1F01
:100BC000A217B307E407F50720F0A21BB30BE40B51
:100BD000F50B661F771F881F991F1A9469F7609598
:100BE0007095809590959B01AC01BD01CF01089552
:100BF000EE0FFF1F0590F491E02D0994F894FFCFBC
:100C00000A000D000C00030002003A31003A3000E7
:100C100000000000CB0353027403A0038403C0034D
:00000001FF
