:100000000C9473000C949B000C949B000C949B002C
:100010000C949B000C949B000C949B000C949B00F4
:100020000C949B000C949B000C949B000C949B00E4
:100030000C949B000C949B000C949B000C949B00D4
:100040000C9483090C949B000C94E00B0C94230CEF
:100050000C949B000C949B000C949B000C949B00B4
:100060000C949B000C949B005605CA059D058005C9
:10007000F205F2055205F2055205F2055205520548
:100080005205F2055205520500000007000201006A
:100090000003040600000000000000000102040844
:1000A00010204080010204081020010204081020E2
:1000B000040404040404040402020202020203030E
:1000C00003030303000000002300260029000000B2
:1000D0000000250028002B0000000000240027005D
:1000E0002A00DC08E80C11241FBECFEFD8E0DEBFE9
:1000F000CDBF11E0A0E0B1E0EAE9FAE102C005906D
:100100000D92A433B107D9F718E0A4E3B1E001C020
:100110001D92A337B107E1F710E0C6EED0E004C0AE
:100120002297FE010E94470DC23ED107C9F70E94E7
:10013000390B0C944B0D0C940000DC01ED91FC91FB
:100140000190F081E02D0994CF93DF93CAE8D1E0CC
:10015000E0E0F1E0DF0180E090E0699179914D917C
:100160005D91649F9001659F300D749F300D112447
:10017000820F931F21E0A031B20779F790933501E8
:1001800080933401CAE9D1E0A0E0B1E080E090E0E2
:10019000699179914D915D91649F9001659F300DBA
:1001A000749F300D1124820F931F21E0A031B207FC
:1001B00079F79093370180933601CAEAD1E0A0E045
:1001C000B1E080E090E0699179914D915D91649FFB
:1001D0009001659F300D749F300D1124820F931F85
:1001E00021E0A031B20779F790933901809338016B
:1001F000AAEBB1E080E090E06D917D914191519149
:10020000649F9001659F300D749F300D1124820F03
:10021000931F21E0E031F20779F790934101809339
:10022000400190933B0180933A0160E08091180176
:100230000E94B80A20913A0141E060911401809136
:1002400016010E9448092091380141E06091140193
:10025000809116010E9448092091360141E0609189
:100260001401809116010E9448092091340141E057
:1002700060911401809116010E94480961E080910B
:100280001801DF91CF910C94B80AE62FF0E0EE0F41
:10029000FF1FEE5BFE4F81E090E0918380830C9422
:1002A000A400E62FF0E0EE0FFF1FEE5BFE4F118281
:1002B00010820C94A400DC011A968D919C911B97DE
:1002C000813F910509F4A9C034F5803B910509F4FB
:1002D00053C07CF480399105E1F1803A910509F42D
:1002E00069C08038910509F0C6C0FD01E25FFE4F8C
:1002F00064C0803D910509F46FC02CF4803C9105E9
:1003000009F46EC00895803E9105D1F1803F9105BA
:1003100009F475C008958A3F910511F174F4833F83
:10032000910509F493C00CF47CC0863F910509F453
:1003300098C0883F910589F008958C3F9105B1F0F0
:1003400094F08E3F9105A9F08F3F910509F48CC080
:100350000895FD01E05FFE4F30C0AA5DBE4F86C02C
:10036000A85DBE4F83C0A65DBE4F80C0A45DBE4FDA
:100370007DC0A25DBE4F7AC0FD01EC5EFE4F1DC088
:10038000FD01E65EFE4F0190F081E02D309709F40B
:1003900072C01D966C911D976F7720E8629FB00127
:1003A00011241C968C911C978F77682B705219968C
:1003B0008C910994FD01EE5EFE4F0190F081E02DDD
:1003C000309709F458C01D964C911D971C966C915E
:1003D0001C9719968C910994FD01E85EFE4F03C0AD
:1003E000FD01EA5EFE4F0190F081E02D309709F4A7
:1003F00042C01C966C911C9719968C910994FD0132
:10040000E45EFE4F0190F081E02D3097A1F11C9643
:100410006C911C97CD010E960994FD01E25EFE4F92
:1004200018C0FD01E05EFE4F0190F081E02D309795
:1004300011F11D968C911D978F7720E8829FC00146
:1004400011241C962C912F77822B0994FD01EE5DCF
:10045000FE4F0190F081E02D309769F01C968C9151
:100460000994AC5DBE4F02C0A05DBE4FED91FC9102
:10047000309709F0099408950F931F93CF93DF935A
:100480008C01EB016D3F710554F46A3F710564F412
:10049000663F710549F0683F710599F405C0CB01CD
:1004A0008E5F9109029768F4F801EC5CFE4F808141
:1004B0009181DC01ED91FC910190F081E02D6C2F98
:1004C0000995C63FD10521F4F801ED5CFE4F10827D
:1004D000DF91CF911F910F910895DF92EF92FF92DC
:1004E0000F931F93CF93DF937B01122F01500031A5
:1004F00018F4603871052CF4FC01ED5CFE4F10829D
:100500004BC0613E7105CCF54F77D42E602F6E291C
:10051000FC01ED5CFE4F2081EC01CC5CDE4F261728
:1005200051F0608388819981DC01ED91FC9101900B
:10053000F081E02D099588819981DC01ED91FC9194
:100540000190F081E02D6D2D0995E894E4F8B0EC70
:10055000EB16F10409F188819981DC01ED91FC91A0
:10056000612F6F770190F081E02DDF91CF911F9186
:100570000F91FF90EF90DF9009949B01265F310966
:100580002A30310548F4DF91CF911F910F91FF90F0
:10059000EF90DF900C943C02DF91CF911F910F916F
:1005A000FF90EF90DF9008959C018F7C803891053B
:1005B00061F0203D310549F081E0203E310539F000
:1005C000203C310521F080E0089581E008950895F0
:1005D00087FF0DC09CE0980F923048F0982F9B7FCA
:1005E000993F29F0803F08F4807F90E0089580E0F3
:1005F00090E008952F923F924F925F926F927F9278
:100600008F929F92AF92BF92CF92DF92EF92FF9222
:100610000F931F93CF93DF931F92CDB7DEB71C01CB
:100620008C010C5C1E4F82E0E82EF12C93E0C92E69
:10063000D12CAA24AA94B12C30EF532E8824839471
:10064000912CD8018D919C91DC01ED91FC9104805D
:10065000F581E02D0995892B09F4A4C1F801808169
:100660009181DC01ED91FC910680F781E02D0995E7
:100670003C01F101278130852115310509F0CAC0FF
:1006800082834080842D0E94E8020E94D402882345
:1006900069F067FC0BC0D10112964C921297139629
:1006A0006C92139718969C928E921797F101728014
:1006B000872D0E94E802813F910509F45EC06CF528
:1006C000803B910509F45FC06CF48039910509F411
:1006D0005AC0803A910509F456C08038910509F056
:1006E00056C051C0803D910509F447C02CF4803CB0
:1006F000910509F442C04BC0803E910509F443C006
:10070000803F910509F043C0D1011696BC92AE928C
:1007100015971C921E965C9241C0883F9105A9F0E6
:1007200044F4833F910549F174F1863F910569F0E6
:100730002EC08A3F91055CF18D3F910534F09C01FC
:100740002E5F31092230310510F5D1011B969C93A3
:100750008E931A9719961C9219971C961C921C97A7
:100760001D961C92F101E35FFE4F81E08083F10151
:10077000108617821682158216C1D1011696FC9238
:10078000EE9215970BC0F101D682C58207C0F10128
:100790001086178216821582108204C1D101179625
:1007A0002D913C91189715964D915C911697BA0131
:1007B000615071092617370738F11B969C938E9369
:1007C0001A97872D8F7077247394780E19967C92E0
:1007D000199713968C9113971C968C931C97433002
:1007E000510531F414968C9114971D968C9302C088
:1007F000F1011586D10118961C921E921797169634
:100800001C921E9215972AC02F5F3F4FF10130872F
:10081000278317CF87FF4DC099278D3F91055CF443
:100820008A3F910574F4873F9105F1F0883F910567
:1008300009F03FC006C0AC014E5F5109423051057E
:10084000C0F5D1011B969C938E931A971C961C920F
:100850001C971D961C921D9719961C92F101E35F3F
:10086000FE4F81E080839FC0F1018685803FB9F50E
:10087000C9010196E20FF31F47EF468720EF30E0F2
:10088000D1011B963C932E931A971C968C931C9720
:100890001D969C931D9719961C92F101E35FFE4FE4
:1008A00081E08083F1011086178216821582108202
:1008B0007AC0F1018281E20FF31F803FD9F466868E
:1008C000D10115966D907C901697C301019728175A
:1008D000390708F45FC012962C91203F69F4D101CA
:1008E00018961C921E92179716961C921E92159798
:1008F0001C9258C06282E4CF822F29830E94E802B2
:100900008C01F101938782870E94D4022981882378
:1009100039F0822F8F708F5FD10119968C9302C0AE
:10092000F1011186D10113968C9113971C968C932B
:10093000B3E06B16710421F4F1018481858703C053
:10094000D1011D961C92F101108617821682158224
:1009500081E0E35FFE4F8083003B1105A1F054F47A
:100960000039110581F0003A110569F000381105D0
:1009700069F409C0003D110531F0003E110519F080
:10098000003C110519F4D1012C9302C0F101108231
:1009900081E009C02F5F3F4FD10118963C932E9301
:1009A00017974FCE80E00F90DF91CF911F910F915D
:1009B000FF90EF90DF90CF90BF90AF909F908F907F
:1009C0007F906F905F904F903F902F900895AF92DF
:1009D000BF92CF92DF92FF920F931F93CF93DF933B
:1009E000613110F0F12C01C1EC010E94FA02F82EE5
:1009F0008823C1F38A859B858039910519F48D85FB
:100A0000882391F06A857B856115710559F3AB01E7
:100A1000405851094136510560F4898199859817EC
:100A200041F08111DFCF05C080E890E09B878A8785
:100A3000E9CFFE01EE5CFE4F8081282F217080FF00
:100A4000D1C08E7F09F4CEC04136510500F509852D
:100A50008981081719F021E0811120E080818695B5
:100A600090E08230910539F08330910541F0019793
:100A700009F0B8C006C0222309F4B4C002C0211195
:100A8000B1C02D854C85CE010E946D02ABC0FB012B
:100A9000E05FF109E031F10508F0A4C0EC5CFF4F24
:100AA0000C94450DCE010E943C029CC08E01025F59
:100AB0001F4F68014D8550E0542F44278C859A01C3
:100AC000282B2F3F310519F010F02FEF30E0020FE7
:100AD000131F5E018CECA81A8EEFB80AC016D1065F
:100AE00009F47CC0D5018D919C91F60161916F0153
:100AF000DC01ED91FC910190F081E02D0995EECFA4
:100B00001C856E01BCECCB1ABEEFDB0AF6018081BE
:100B10009181DC01ED91FC910190F081E02D63EF7A
:100B20000995F60180819181DC01ED91FC91612FA5
:100B30006F770190F081E02D50C00D85B0E80B9FDC
:100B4000800111248C85082B6E01ECECCE1AEEEF9F
:100B5000DE0AD6018D919C91DC01ED91FC91019012
:100B6000F081E02D62EF0995B8016F777727F601E4
:100B7000808191810E949D00B801660F672F661FDA
:100B8000770B71956F777727D6018D919C910E9495
:100B90009D0024C02C852770B0E12B9F900111246B
:100BA0001D851F70122B6E01ECECCE1AEEEFDE0AE3
:100BB000D6018D919C91DC01ED91FC910190F08129
:100BC000E02D61EF0995F60180819181DC01ED91C5
:100BD000FC910190F081E02D612F0995FE01ED5C03
:100BE000FE4F1082CE010E945B018F2DDF91CF91CD
:100BF0001F910F91FF90DF90CF90BF90AF9008951D
:100C00002F923F924F925F926F927F928F929F921C
:100C1000AF92BF92CF92DF92EF92FF920F931F930A
:100C2000CF93DF93CDB7DEB728970FB6F894DEBF2A
:100C30000FBECDBF42EC53E05E834D83612C712C1F
:100C4000812C912C21E030E0082C01C0220F0A9465
:100C5000EAF741E060911E01809120010E9448095D
:100C600060E080911A010E94B80A61E080911A0147
:100C70000E94B80A02E816E062E4E62E66E0F62E6C
:100C800060E0809114010E94B80A80911C010E94CA
:100C9000E80AD8019E938E938D0161E08091140142
:100CA0000E94B80AB6E002341B0751F780E090E0DA
:100CB000F701219131917F01FC01E60DF71DEE5303
:100CC000FA4F3183208340968038910589F7A2E559
:100CD000B6E080E090E02D913D91FC01E60DF71D1E
:100CE000EE53FB4F3183208340968038910599F76E
:100CF00080E090E0ED81FE81E80FF91FDC01AE5B42
:100D0000B94F90962D913C91919731832083029613
:100D10008031910579F7A2E7B6E080E090E02D916F
:100D20003D91FC01E60DF71DEE53FD4F318320830D
:100D300040968038910599F742EC55E05A834983F3
:100D400082EC92E09C838B8392E4A92E92E0B92EF0
:100D500022E4C22E23E0D22E32EC232E34E0332EB6
:100D600042E4E42E44E0F42EA2E4B5E0B887AF8379
:100D700052EC452E53E0552E14E2E981FA81808130
:100D8000918181309105C1F4AF81B8858D919C919D
:100D9000019751F101E024E6412F60E970E08AE813
:100DA00096E00E946D02E981FA8180819181AF8194
:100DB000B8858D939C9318C0EF81F885208131818F
:100DC0008217930789F001E020E0412F60E870E08E
:100DD0008AE896E00E946D02A981BA818D919C916A
:100DE000EF81F88591838083D1018D919C91813031
:100DF0009105A9F4F70180819181019729F102E021
:100E000024E6412F60E970E08AE896E00E946D02D6
:100E1000D1018D919C91F7019183808315C0D701F9
:100E20002D913C918217930779F002E020E0412F49
:100E300060E870E08AE896E00E946D02F10180812E
:100E40009181D7018D939C93F201808191818130B2
:100E50009105A9F4D6018D919C91019729F103E0A8
:100E600024E6412F60E970E08AE896E00E946D0276
:100E7000F20180819181D6018D939C9315C0F6017A
:100E8000208131818217930779F003E020E0412F20
:100E900060E870E08AE896E00E946D02D2018D91D0
:100EA0009C91F60191838083AB81BC818D919C9153
:100EB00081309105B1F4F50180819181019739F17B
:100EC00004E024E6412F60E970E08AE896E00E94A1
:100ED0006D02AB81BC818D919C91F50191838083E2
:100EE00016C0D5012D913C918217930781F004E043
:100EF00020E0412F60E870E08AE896E00E946D02F1
:100F0000EB81FC8180819181D5018D939C93E98156
:100F1000FA813296FA83E9831F5F4B815C814E5FD1
:100F20005F4F5C834B8352E0A50EB11C82E0480EFC
:100F3000511C92E0C90ED11CA2E02A0E311CB2E075
:100F4000EB0EF11CEF81F8853296F887EF831436AB
:100F500009F013CF809112010E942B09909389060A
:100F60008093880620918606309187068217930722
:100F700029F1AC01421B530B9A012B5F3F4F2B30E1
:100F80003105E0F097FD07969C0183E035952795A4
:100F90008A95E1F7209384063093850601E040E1CD
:100FA00060EB70E08AE896E00E946D02809188060E
:100FB0009091890690938706809386065FEF851A45
:100FC000950A82E0680E711CAD81BE815096BE8389
:100FD000AD83B8E08B16910409F034CE60918B0696
:100FE0008AE896E00E94E704882361F085E491E0B6
:100FF00090939B0780939A0781E591E090939907DE
:101000008093980728960FB6F894DEBF0FBECDBF29
:10101000DF91CF911F910F91FF90EF90DF90CF90D4
:10102000BF90AF909F908F907F906F905F904F9008
:101030003F902F90089560E0809118010E94B80AB7
:101040002091820641E060911401809116010E9476
:1010500048092091820641E06091140180911601B7
:101060000E9448092091820641E06091140180911C
:1010700016010E9448092091820641E06091140106
:10108000809116010E94480961E0809118010E9438
:10109000B80A64E670E080E090E00E94F209609196
:1010A0008B068AE896E00E94E70481110AC08091CD
:1010B0008206909183060196909383068093820620
:1010C000BACF60E0809118010E94B80A20E041E0A8
:1010D00060911401809116010E94480920E041E0CE
:1010E00060911401809116010E94480920E041E0BE
:1010F00060911401809116010E94480920E041E0AE
:1011000060911401809116010E94480961E080916C
:1011100018010C94B80ACF93DF9361E0809120010D
:101120000E947C0A61E080911E010E947C0A60E0BE
:1011300080911C010E947C0A61E080911A010E944A
:101140007C0A61E0809118010E947C0A61E0809134
:1011500016010E947C0A61E0809114010E947C0AC1
:1011600061E0809110010E947C0ACAE8D6E042E169
:101170005AE760E070E08091BE079091BF070E943F
:101180005E0C1092BD0785E08983188218861F8245
:101190001E821D82109297071B861A8619861C864E
:1011A0001D86ECEBF7E08081817082608160808336
:1011B000DF91CF910C941B0889EC97E09093BF07C7
:1011C0008093BE07109299071092980710929B0780
:1011D00010929A0710929D0710929C0710929F07F9
:1011E00010929E071092A1071092A0071092A307D9
:1011F0001092A2071092A5071092A4071092A707B9
:101200001092A6071092A9071092A8071092AB0798
:101210001092AA071092AD071092AC071092AF0778
:101220001092AE071092B1071092B0071092B30758
:101230001092B2071092B5071092B4071092B70738
:101240001092B6071092B9071092B8071092BB0718
:101250001092BA0708958E3008F08E508770209152
:10126000220190E4299F90011124822B80937C001D
:1012700080917A00806480937A0080917A0086FD64
:10128000FCCF809178002091790090E0922B089516
:10129000BF92CF92DF92EF92FF920F931F93CF9363
:1012A000DF93C82ED62EB42EC7E0D0E0022F10E078
:1012B00087E0E82EF12CB11005C0C7018C1B9D0BF7
:1012C000980102C098018C2F02C0359527958A9508
:1012D000E2F7B901617077278C2D0E94B80A61E0AE
:1012E0008D2D0E94B80A60E08D2D0E94B80A2197CA
:1012F00010F7DF91CF911F910F91FF90EF90DF904A
:10130000CF90BF9008951F920F920FB60F921124A5
:101310002F933F938F939F93AF93BF938091C10778
:101320009091C207A091C307B091C4073091C00744
:1013300023E0230F2D3720F40196A11DB11D05C018
:1013400026E8230F0296A11DB11D2093C0078093AC
:10135000C1079093C207A093C307B093C4078091BD
:10136000C5079091C607A091C707B091C80701961D
:10137000A11DB11D8093C5079093C607A093C70711
:10138000B093C807BF91AF919F918F913F912F91DB
:101390000F900FBE0F901F9018953FB7F894809153
:1013A000C5079091C607A091C707B091C80726B599
:1013B000A89B05C02F3F19F00196A11DB11D3FBF8D
:1013C000BA2FA92F982F8827820F911DA11DB11D1B
:1013D000BC01CD0142E0660F771F881F991F4A9517
:1013E000D1F70895CF92DF92EF92FF92CF93DF93E0
:1013F0006B017C010E94CD09EB01C114D104E10411
:10140000F10479F00E94CD096C1B7D0B683E73409E
:10141000A0F381E0C81AD108E108F108C851DC4FF7
:10142000ECCFDF91CF91FF90EF90DF90CF900895B8
:10143000789484B5826084BD84B5816084BD85B5AF
:10144000826085BD85B5816085BDEEE6F0E0808176
:1014500081608083E1E8F0E0108280818260808397
:10146000808181608083E0E8F0E08081816080831A
:10147000E1EBF0E0808184608083E0EBF0E080814C
:1014800081608083EAE7F0E08081846080838081EE
:101490008260808380818160808380818068808396
:1014A0001092C1000895833081F028F4813099F0C2
:1014B0008230A1F008958630A9F08730B9F08430E9
:1014C000D1F4809180008F7D03C0809180008F7760
:1014D00080938000089584B58F7702C084B58F7D96
:1014E00084BD08958091B0008F7703C08091B000D3
:1014F0008F7D8093B0000895CF93DF9390E0FC013F
:10150000E456FF4F2491FC01E055FF4F849188235E
:1015100061F190E0880F991FFC01E852FF4FC591DF
:10152000D491FC01E253FF4FA591B491611109C020
:101530009FB7F8948881209582238883EC912E238D
:101540000BC0623061F49FB7F8943881822F809588
:1015500083238883EC912E2B2C939FBF06C08FB7DB
:10156000F894E8812E2B28838FBFDF91CF910895C7
:101570001F93CF93DF93282F30E0F901E857FF4FF7
:101580008491F901E456FF4FD491F901E055FF4FE2
:10159000C491CC23C9F0162F81110E94530AEC2F5D
:1015A000F0E0EE0FFF1FE253FF4FA591B4918FB70C
:1015B000F894111105C09C91ED2FE095E92302C02C
:1015C000EC91ED2BEC938FBFDF91CF911F9108959C
:1015D000CF93DF93282F30E0F901E857FF4F849134
:1015E000F901E456FF4FD491F901E055FF4FC49142
:1015F000CC2391F081110E94530AEC2FF0E0EE0F02
:10160000FF1FEC53FF4FA591B491EC91ED2381E0C6
:1016100090E021F480E002C080E090E0DF91CF9183
:101620000895CF92DF92EF92FF920F931F93CF9383
:10163000DF936C01EB017B01E40EF51E00E010E08E
:10164000CE15DF0561F06991D601ED91FC91019015
:10165000F081E02DC6010995080F191FF1CFC801CF
:10166000DF91CF911F910F91FF90EF90DF90CF907E
:1016700008950E94180A0E948B08CAE1DCE00E94CB
:1016800000062097E1F30E941A0CF9CFFC01248593
:101690003585F901E05CFF4F808191813296208190
:1016A0003181821B930B8F7399270895DC011C965F
:1016B000ED91FC911D97DF01A05CBF4F2D913C91F6
:1016C000119712968D919C9111972817390739F02F
:1016D0008D919C91E80FF91F808190E008958FEF24
:1016E0009FEF0895FC01A485B585FD01E05CFF4FE7
:1016F000208131813296808191812817390779F0D4
:1017000080819181A80FB91F8C91208131812F5F39
:101710003F4F2F7333273183208390E008958FEF5D
:101720009FEF0895FC0181A1882329F0A489B58940
:101730008C9186FFFBCF11A208950F931F93CF9337
:10174000DF93FC01A685B7858D01005C1F4FE80182
:101750008881998101968F739927AD014E5B5F4F08
:10176000EA012881398182179307D1F3E8012881A2
:101770003981A20FB31F6C93A685B785A05CBF4FBC
:1017800011969C938E93A689B7892C9181E090E065
:10179000078C02C0880F991F0A94E2F7822B8C9362
:1017A00081E081A30488F589E02D808180648083B5
:1017B00081E090E0DF91CF911F910F9108950895FE
:1017C0001F920F920FB60F9211242F934F935F9396
:1017D0008F939F93EF93FF938091C00082FD1CC075
:1017E0002091C60080916F089091700801968F73C8
:1017F000992740917108509172088417950771F0EC
:10180000E0916F08F0917008E15DF74F20839093AD
:10181000700880936F0802C08091C600FF91EF911D
:101820009F918F915F914F912F910F900FBE0F90CD
:101830001F90189589EC97E00E94460B892B11F0B8
:101840000C94DF0B08951F920F920FB60F92112484
:101850002F933F938F939F93EF93FF9320912B08A8
:1018600030912C0880912D0890912E082817390767
:1018700031F48091C1008F7D8093C10014C0E0914C
:101880002D08F0912E08E551F84F208180912D0808
:1018900090912E0801968F73992790932E0880932C
:1018A0002D082093C600FF91EF919F918F913F915A
:1018B0002F910F900FBE0F901F901895CF92DF922F
:1018C000EF92FF920F931F93CF93DF93EC016A0186
:1018D0007B01411581EE58076105710511F1EC8915
:1018E000FD8981E090E008A002C0880F991F0A944A
:1018F000E2F7808360E079E08DE390E0A701960154
:101900000E94230D89019A01015011092109310911
:1019100036952795179507959801011580E11807C9
:10192000A8F0EC89FD89108260E874E88EE190E00F
:10193000A70196010E94230DDA01C9010197A109AF
:10194000B109B695A795979587959C01E889F9897E
:101950003083EA89FB89208319A2EE89FF894081BF
:1019600081E090E09C010C8C02C0220F331F0A948E
:10197000E2F7242B2083EE89FF8940819C010D8CA6
:1019800002C0220F331F0A94E2F7242B2083EE8932
:10199000FF8940819C010E8C02C0220F331F0A94E4
:1019A000E2F7242B2083EE89FF8920810F8C02C06F
:1019B000880F991F0A94E2F7809582238083DF9134
:1019C000CF911F910F91FF90EF90DF90CF900895EE
:1019D000E9ECF7E01382128288EE93E0A0E0B0E039
:1019E00084839583A683B78387E291E09183808384
:1019F0008FE298E0958784878BEE97E097878687BC
:101A000085EC90E0918B808B84EC90E0938B828BC3
:101A100080EC90E0958B848B81EC90E0978B868BAB
:101A200082EC90E0918F808F86EC90E0938F828F94
:101A300084E0848F83E0858F87E0868F85E0878FC1
:101A400081E080A30895A1E21A2EAA1BBB1BFD0111
:101A50000DC0AA1FBB1FEE1FFF1FA217B307E4078D
:101A6000F50720F0A21BB30BE40BF50B661F771FE5
:101A7000881F991F1A9469F76095709580959095C5
:101A80009B01AC01BD01CF010895EE0FFF1F059032
:0A1A9000F491E02D0994F894FFCFC3
:101A9A00010002000400080010002000400080003D
:101AAA00070001000D000B0009000A000C000300EA
:101ABA00020001000000009D0B110B460B720B5631
:041ACA000B920B0070
:00000001FF
