:100000000C9462000C948A000C948A000C948A0070
:100010000C948A000C948A000C948A000C948A0038
:100020000C948A000C948A000C948A000C948A0028
:100030000C948A000C948A000C948A000C948A0018
:100040000C949C050C948A000C9459040C949C0408
:100050000C948A000C948A000C948A000C948A00F8
:100060000C948A000C948A00000000070002010032
:100070000003040600000000000000000102040864
:100080001020408001020408102001020408102002
:10009000040404040404040402020202020203032E
:1000A00003030303000000002300260029000000D2
:1000B0000000250028002B0000000000240027007D
:1000C0002A00610511241FBECFEFD8E0DEBFCDBFEF
:1000D00011E0A0E0B1E0E6E9FCE002C005900D927D
:1000E000A432B107D9F712E0A4E2B1E001C01D9239
:1000F000AB3EB107E1F710E0C4ECD0E004C02297BA
:10010000FE010E944506C23CD107C9F70E94B20316
:100110000C9449060C94000040E855E260E070E061
:1001200088E392E00E94D70461E080910C010E9474
:10013000090261E080910A010E94090260E0809159
:1001400008010E94090261E0809106010E940902F3
:1001500061E0809104010E94090261E08091020146
:100160000E94090261E0809100010C9409028F92C3
:100170009F92AF92BF92CF92DF92EF92FF920F9336
:100180001F93CF93DF9398EAA92E91E0B92EC12C4B
:10019000D12C88248394912C94010C2C01C0220F23
:1001A0000A94EAF741E060910A0180910C010E94F3
:1001B000A50160E0809106010E94450261E0809106
:1001C00006010E944502C8E3D2E008E212E060E0C6
:1001D000809100010E944502809108010E947502F1
:1001E0009A938A9361E0809100010E94450242E067
:1001F000C832D40761F780E090E0F8012191319195
:100200008F01F501E80FF91F318320834096803874
:10021000910599F7C8E2D1E088EAE82E81E0F82E4E
:1002200000E010E0F701808191818130910571F447
:1002300088819981019739F14AE050E0B80188E35B
:1002400092E00E94AA036EE071E00EC0288139811D
:1002500082179307C1F04AE050E0B80188E392E0CA
:100260000E94AA0361E171E088E392E00E94DB0250
:1002700063E171E088E392E00E94F802F701808177
:100280009181998388830F5F1F4FF2E0EF0EF11C7D
:1002900022960034110531F6EAE3F2E080E090E0C6
:1002A00028E030E052914291022E02C0440F551FC7
:1002B0000A94E2F7842B952B2150310998F79093FB
:1002C0002701809326012091240130912501821776
:1002D000930719F160E0809104010E94450220E03B
:1002E00041E060910001809102010E94A5012091EE
:1002F000260141E060910001809102010E94A50168
:1003000061E0809104010E94450280912601909154
:10031000270190932501809324018FEFC81AD80AF2
:10032000E2E0AE0EB11CF8E0CF16D10409F034CFF4
:10033000DF91CF911F910F91FF90EF90DF90CF90C1
:10034000BF90AF909F908F900895BF92CF92DF9211
:10035000EF92FF920F931F93CF93DF93C82ED62E69
:10036000B42EC7E0D0E0022F10E087E0E82EF12C99
:10037000B11005C0C7018C1B9D0B980102C09801EC
:100380008C2F02C0359527958A95E2F7B9016170E7
:1003900077278C2D0E94450261E08D2D0E94450239
:1003A00060E08D2D0E944502219710F7DF91CF91DB
:1003B0001F910F91FF90EF90DF90CF90BF90089525
:1003C000833081F028F4813099F08230A1F00895D3
:1003D0008630A9F08730B9F08430D1F48091800064
:1003E0008F7D03C0809180008F7780938000089577
:1003F00084B58F7702C084B58F7D84BD08958091C8
:10040000B0008F7703C08091B0008F7D8093B000E3
:100410000895CF93DF9390E0FC01E458FF4F2491BF
:10042000FC01E057FF4F8491882361F190E0880F31
:10043000991FFC01E854FF4FC591D491FC01E2558E
:10044000FF4FA591B491611109C09FB7F8948881BD
:10045000209582238883EC912E230BC0623061F4B7
:100460009FB7F8943881822F809583238883EC91FD
:100470002E2B2C939FBF06C08FB7F894E8812E2BAC
:1004800028838FBFDF91CF9108951F93CF93DF9380
:10049000282F30E0F901E859FF4F8491F901E45821
:1004A000FF4FD491F901E057FF4FC491CC23C9F01D
:1004B000162F81110E94E001EC2FF0E0EE0FFF1FDC
:1004C000E255FF4FA591B4918FB7F894111105C073
:1004D0009C91ED2FE095E92302C0EC91ED2BEC937C
:1004E0008FBFDF91CF911F910895CF93DF93282F76
:1004F00030E0F901E859FF4F8491F901E458FF4FCA
:10050000D491F901E057FF4FC491CC2391F08111B0
:100510000E94E001EC2FF0E0EE0FFF1FEC55FF4FC3
:10052000A591B491EC91ED2381E090E021F480E07D
:1005300002C080E090E0DF91CF910895CF92DF92EA
:10054000EF92FF920F931F93CF93DF936C01EB0118
:100550007B01E40EF51E00E010E0CE15DF0561F032
:100560006991D601ED91FC910190F081E02DC601D9
:100570000995080F191FF1CFC801DF91CF911F9185
:100580000F91FF90EF90DF90CF9008956115710566
:1005900079F0FB0101900020E9F73197AF01461B8C
:1005A000570BDC01ED91FC910280F381E02D099461
:1005B00080E090E008950C94C602DC01ED91FC917E
:1005C0000190F081E02D09940F931F93CF93DF9357
:1005D000EC016DE00E94DD028C016AE0CE010E9418
:1005E000DD02800F911FDF91CF911F910F91089530
:1005F0000F931F93CF93DF93EC010E94C6028C01EF
:10060000CE010E94E402800F911FDF91CF911F91D4
:100610000F9108958F929F92AF92BF92CF92DF92E7
:10062000EF92FF920F931F93CF93DF93CDB7DEB777
:10063000A1970FB6F894DEBF0FBECDBF6C01142F8B
:10064000E52FCB01022F19A2223008F40AE07E0127
:1006500021E2E20EF11C802E912CA12CB12C612FF5
:100660007E2FA50194010E942106029F10191124DA
:1006700081E0E81AF1081A3014F4105D01C0195C29
:10068000F7011083122FE32FCA01232B242B252BD4
:1006900031F7B701C6010E94C602A1960FB6F894C1
:1006A000DEBF0FBECDBFDF91CF911F910F91FF90A5
:1006B000EF90DF90CF90BF90AF909F908F90089574
:1006C000CF92DF92EF92FF920F931F93CF93DF931E
:1006D000EC016A017B012115310579F4E881F9818A
:1006E0000190F081E02D642FDF91CF911F910F9148
:1006F000FF90EF90DF90CF9009942A303105E9F414
:1007000077FF1AC06DE20E94DD028C014427552755
:10071000BA014C195D096E097F092AE0CE010E94D9
:100720000A03800F911FDF91CF911F910F91FF90CE
:10073000EF90DF90CF9008952AE0B701A601CE0197
:10074000DF91CF911F910F91FF90EF90DF90CF90AD
:100750000C940A039A01AB01662757FD6095762F2A
:100760000C9460030E94E6050E948C00C3E9D4E06B
:100770000E94B7002097E1F30E949304F9CFFC0197
:1007800024853585F901E05CFF4F808191813296A7
:1007900020813181821B930B8F7399270895DC018F
:1007A0001C96ED91FC911D97DF01A05CBF4F2D9130
:1007B0003C91119712968D919C91119728173907AA
:1007C00039F08D919C91E80FF91F808190E0089598
:1007D0008FEF9FEF0895FC01A485B585FD01E05CD6
:1007E000FF4F20813181329680819181281739070E
:1007F00079F080819181A80FB91F8C91208131817E
:100800002F5F3F4F2F7333273183208390E008956C
:100810008FEF9FEF0895FC0181A1882329F0A4891F
:10082000B5898C9186FFFBCF11A208950F931F937A
:10083000CF93DF93FC01A685B7858D01005C1F4F28
:10084000E8018881998101968F739927AD014E5BEC
:100850005F4FEA012881398182179307D1F3E801BC
:1008600028813981A20FB31F6C93A685B785A05C40
:10087000BF4F11969C938E93A689B7892C9181E0E6
:1008800090E0078C02C0880F991F0A94E2F7822B30
:100890008C9381E081A30488F589E02D80818064B8
:1008A000808381E090E0DF91CF911F910F910895B7
:1008B00008951F920F920FB60F9211242F934F930A
:1008C0005F938F939F93EF93FF938091C00082FD7E
:1008D0001CC02091C6008091DE029091DF0201963B
:1008E0008F7399274091E0025091E1028417950798
:1008F00071F0E091DE02F091DF02E256FD4F2083BD
:100900009093DF028093DE0202C08091C600FF91C7
:10091000EF919F918F915F914F912F910F900FBE0B
:100920000F901F90189588E392E00E94BF03892BD7
:1009300011F00C94580408951F920F920FB60F9265
:1009400011242F933F938F939F93EF93FF932091C5
:100950009A0230919B0280919C0290919D022817EF
:10096000390731F48091C1008F7D8093C10014C09C
:10097000E0919C02F0919D02E65AFD4F208180910A
:100980009C0290919D0201968F73992790939D02EE
:1009900080939C022093C600FF91EF919F918F91CD
:1009A0003F912F910F900FBE0F901F901895CF92EF
:1009B000DF92EF92FF920F931F93CF93DF93EC019F
:1009C0006A017B01411581EE58076105710511F13E
:1009D000EC89FD8981E090E008A002C0880F991F92
:1009E0000A94E2F7808360E079E08DE390E0A7016C
:1009F00096010E94210689019A01015011092109DD
:100A0000310936952795179507959801011580E1CD
:100A10001807A8F0EC89FD89108260E874E88EE17F
:100A200090E0A70196010E942106DA01C901019711
:100A3000A109B109B695A795979587959C01E88975
:100A4000F9893083EA89FB89208319A2EE89FF891D
:100A5000408181E090E09C010C8C02C0220F331F8A
:100A60000A94E2F7242B2083EE89FF8940819C01C0
:100A70000D8C02C0220F331F0A94E2F7242B20832F
:100A8000EE89FF8940819C010E8C02C0220F331F2A
:100A90000A94E2F7242B2083EE89FF8920810F8CB2
:100AA00002C0880F991F0A94E2F780958223808301
:100AB000DF91CF911F910F91FF90EF90DF90CF903A
:100AC0000895E8E3F2E01382128288EE93E0A0E05A
:100AD000B0E084839583A683B78388E191E0918316
:100AE00080838EE992E0958784878AE592E09787F4
:100AF000868785EC90E0918B808B84EC90E0938BE3
:100B0000828B80EC90E0958B848B81EC90E0978BCE
:100B1000868B82EC90E0918F808F86EC90E0938FB3
:100B2000828F84E0848F83E0858F87E0868F85E0E5
:100B3000878F81E080A308951F920F920FB60F92C6
:100B400011242F933F938F939F93AF93BF938091E3
:100B5000E3029091E402A091E502B091E6023091A7
:100B6000E20223E0230F2D3720F40196A11DB11DD1
:100B700005C026E8230F0296A11DB11D2093E202B5
:100B80008093E3029093E402A093E502B093E6021F
:100B90008091E7029091E802A091E902B091EA0207
:100BA0000196A11DB11D8093E7029093E802A093E6
:100BB000E902B093EA02BF91AF919F918F913F916B
:100BC0002F910F900FBE0F901F901895789484B5B9
:100BD000826084BD84B5816084BD85B5826085BD39
:100BE00085B5816085BDEEE6F0E08081816080831F
:100BF000E1E8F0E010828081826080838081816002
:100C00008083E0E8F0E0808181608083E1EBF0E0C8
:100C1000808184608083E0EBF0E08081816080836C
:100C2000EAE7F0E080818460808380818260808355
:100C30008081816080838081806880831092C10080
:100C40000895A1E21A2EAA1BBB1BFD010DC0AA1F0D
:100C5000BB1FEE1FFF1FA217B307E407F50720F025
:100C6000A21BB30BE40BF50B661F771F881F991FA0
:100C70001A9469F760957095809590959B01AC01E9
:100C8000BD01CF010895EE0FFF1F0590F491E02DF7
:060C90000994F894FFCF67
:100C96000D000B0009000A000C00030002003A31A7
:100CA600003A30000000000016049E02BF03EB036A
:040CB600CF030B0459
:00000001FF
