:100000000C945D000C9485000C9485000C94850084
:100010000C9485000C9485000C9485000C9485004C
:100020000C9485000C9485000C9485000C9485003C
:100030000C9485000C9485000C9485000C9485002C
:100040000C94C8010C9485000C9432030C94750335
:100050000C9485000C9485000C9485000C9485000C
:100060000C9485000C94850000000007000201003C
:100070000003040600000000000000000102040864
:100080001020408001020408102001020408102002
:10009000040404040404040402020202020203032E
:1000A0000303030300000000250028002B000000CC
:1000B0000000240027002A003A0411241FBECFEFBD
:1000C000D8E0DEBFCDBF11E0A0E0B1E0E0E8FBE0AA
:1000D00002C005900D92AC33B107D9F711E0ACE343
:1000E000B1E001C01D92A73FB107E1F710E0CAEBF4
:1000F000D0E004C02297FE010E94BA05C83BD10798
:10010000C9F70E9489050C94BE050C9400000E945A
:100110001D0140E855E260E070E08DE491E00E944E
:10012000B00360E071E08DE491E00E94CF0461E0F3
:100130008AE00E945C0161E08AE00C9498019F9241
:10014000AF92BF92CF92DF92EF92FF920F931F93E5
:10015000CF93DF9360E08AE00E94980161E08AE03B
:100160000E949801C0E4D1E09CE3C92E91E0D92E11
:1001700000E010E01EBC0DB407FEFDCF8EB55E01A1
:100180008883EE24E394F12C99249394F6019081D2
:1001900088818927892161F16FE171E08DE491E027
:1001A0000E94B2044AE050E0B8018DE491E00E9460
:1001B00081056AE271E08DE491E00E94B2044AE0B8
:1001C00050E0B7018DE491E00E94810566E271E0A4
:1001D0008DE491E00E94B2048881892119F46AE1DA
:1001E00071E002C063E171E08DE491E00E94CF0410
:1001F000990CFFEFEF1AFF0A89E0E816F10431F6D7
:100200002196F5018081F60181936F010F5F1F4FE9
:100210000430110509F0AECF6AE070E080E090E0B4
:10022000DF91CF911F910F91FF90EF90DF90CF90D2
:10023000BF90AF909F900C94370261E08AE00E94DB
:10024000980161E08AE00E945C018CB580618CBD00
:100250008CB580648CBD61E08DE00E945C0161E042
:100260008BE00C945C01833081F028F4813099F0AC
:100270008230A1F008958630A9F08730B9F084303B
:10028000D1F4809180008F7D03C0809180008F77B2
:1002900080938000089584B58F7702C084B58F7DE8
:1002A00084BD08958091B0008F7703C08091B00025
:1002B0008F7D8093B0000895CF93DF9390E0FC0191
:1002C000E458FF4F2491FC01E057FF4F84918823AD
:1002D00061F190E0880F991FFC01E255FF4FC59135
:1002E000D491FC01EC55FF4FA591B491611109C067
:1002F0009FB7F8948881209582238883EC912E23E0
:100300000BC0623061F49FB7F8943881822F8095DA
:1003100083238883EC912E2B2C939FBF06C08FB72D
:10032000F894E8812E2B28838FBFDF91CF91089519
:100330001F93CF93DF93282F30E0F901E859FF4F47
:100340008491F901E458FF4FD491F901E057FF4F30
:10035000C491CC23C9F0162F81110E943301EC2FD8
:10036000F0E0EE0FFF1FEC55FF4FA591B4918FB752
:10037000F894111105C09C91ED2FE095E92302C07E
:10038000EC91ED2BEC938FBFDF91CF911F910895EE
:100390001F920F920FB60F9211242F933F938F93BA
:1003A0009F93AF93BF938091450190914601A09197
:1003B0004701B09148013091440123E0230F2D37CC
:1003C00020F40196A11DB11D05C026E8230F029659
:1003D000A11DB11D209344018093450190934601D6
:1003E000A0934701B09348018091490190914A013F
:1003F000A0914B01B0914C010196A11DB11D8093BC
:10040000490190934A01A0934B01B0934C01BF91D5
:10041000AF919F918F913F912F910F900FBE0F90B1
:100420001F9018953FB7F8948091490190914A0127
:10043000A0914B01B0914C0126B5A89B05C02F3F60
:1004400019F00196A11DB11D3FBFBA2FA92F982FFA
:100450008827820F911DA11DB11DBC01CD0142E075
:10046000660F771F881F991F4A95D1F70895CF927D
:10047000DF92EF92FF92CF93DF936B017C010E949A
:100480001202EB01C114D104E104F10479F00E94DD
:1004900012026C1B7D0B683E7340A0F381E0C81A0A
:1004A000D108E108F108C851DC4FECCFDF91CF91C2
:1004B000FF90EF90DF90CF900895789484B582609C
:1004C00084BD84B5816084BD85B5826085BD85B5F8
:1004D000816085BDEEE6F0E0808181608083E1E8A7
:1004E000F0E01082808182608083808181608083DF
:1004F000E0E8F0E0808181608083E1EBF0E08081E2
:1005000084608083E0EBF0E0808181608083EAE7B3
:10051000F0E080818460808380818260808380813C
:10052000816080838081806880831092C1000895FB
:10053000FC0124853585F901E05CFF4F80819181C4
:10054000329620813181821B930B8F7399270895F6
:10055000DC011C96ED91FC911D97DF01A05CBF4F63
:100560002D913C91119712968D919C91119728177E
:10057000390739F08D919C91E80FF91F808190E047
:1005800008958FEF9FEF0895FC01A485B585FD01C7
:10059000E05CFF4F20813181329680819181281764
:1005A000390779F080819181A80FB91F8C91208142
:1005B00031812F5F3F4F2F7333273183208390E0AA
:1005C00008958FEF9FEF0895FC0181A1882329F002
:1005D000A489B5898C9186FFFBCF11A208950F9352
:1005E0001F93CF93DF93FC01A685B7858D01005C37
:1005F0001F4FE8018881998101968F739927AD017A
:100600004E5B5F4FEA012881398182179307D1F34E
:10061000E80128813981A20FB31F6C93A685B785A5
:10062000A05CBF4F11969C938E93A689B7892C919D
:1006300081E090E0078C02C0880F991F0A94E2F7CE
:10064000822B8C9381E081A30488F589E02D808141
:100650008064808381E090E0DF91CF911F910F91C2
:10066000089508951F920F920FB60F9211242F93A1
:100670004F935F938F939F93EF93FF938091C0006D
:1006800082FD1CC02091C6008091F3019091F4017D
:1006900001968F7399274091F5015091F6018417C7
:1006A000950771F0E091F301F091F401ED54FE4FE4
:1006B00020839093F4018093F30102C08091C600DF
:1006C000FF91EF919F918F915F914F912F910F909B
:1006D0000FBE0F901F9018958DE491E00E94980234
:1006E000892B11F00C94310308951F920F920FB6CD
:1006F0000F9211242F933F938F939F93EF93FF9328
:100700002091AF013091B0018091B1019091B2017F
:100710002817390731F48091C1008F7D8093C10083
:1007200014C0E091B101F091B201E159FE4F208176
:100730008091B1019091B20101968F7399279093A6
:10074000B2018093B1012093C600FF91EF919F9178
:100750008F913F912F910F900FBE0F901F90189582
:10076000CF92DF92EF92FF920F931F93CF93DF937D
:10077000EC016A017B01411581EE580761057105A5
:1007800011F1EC89FD8981E090E008A002C0880F9A
:10079000991F0A94E2F7808360E079E08DE390E0AE
:1007A000A70196010E94960589019A01015011093D
:1007B0002109310936952795179507959801011557
:1007C00080E11807A8F0EC89FD89108260E874E8E0
:1007D0008EE190E0A70196010E949605DA01C90119
:1007E0000197A109B109B695A795979587959C01A1
:1007F000E889F9893083EA89FB89208319A2EE8987
:10080000FF89408181E090E09C010C8C02C0220FA6
:10081000331F0A94E2F7242B2083EE89FF8940815D
:100820009C010D8C02C0220F331F0A94E2F7242B87
:100830002083EE89FF8940819C010E8C02C0220F2B
:10084000331F0A94E2F7242B2083EE89FF8920814D
:100850000F8C02C0880F991F0A94E2F780958223BB
:100860008083DF91CF911F910F91FF90EF90DF90E8
:10087000CF900895EDE4F1E01382128288EE93E0C8
:10088000A0E0B0E084839583A683B78380E391E002
:100890009183808383EB91E0958784878FE691E055
:1008A0009787868785EC90E0918B808B84EC90E035
:1008B000938B828B80EC90E0958B848B81EC90E025
:1008C000978B868B82EC90E0918F808F86EC90E006
:1008D000938F828F84E0848F83E0858F87E0868F7B
:1008E00085E0878F81E080A30895CF92DF92EF9219
:1008F000FF920F931F93CF93DF936C01EB017B016A
:10090000E40EF51E00E010E0CE15DF0561F0699100
:10091000D601ED91FC910190F081E02DC601099581
:10092000080F191FF1CFC801DF91CF911F910F91CF
:10093000FF90EF90DF90CF9008956115710579F0E9
:10094000FB0101900020E9F73197AF01461B570BDF
:10095000DC01ED91FC910280F381E02D099480E0AF
:1009600090E008950C949D04DC01ED91FC910190C0
:10097000F081E02D09940F931F93CF93DF93EC0147
:100980006DE00E94B4048C016AE0CE010E94B404C0
:10099000800F911FDF91CF911F910F9108950F93B9
:1009A0001F93CF93DF93EC010E949D048C01CE0135
:1009B0000E94BB04800F911FDF91CF911F910F9177
:1009C00008958F929F92AF92BF92CF92DF92EF9253
:1009D000FF920F931F93CF93DF93CDB7DEB7A1970D
:1009E0000FB6F894DEBF0FBECDBF6C01142FE52FFC
:1009F000CB01022F19A2223008F40AE07E0121E285
:100A0000E20EF11C802E912CA12CB12C612F7E2F97
:100A1000A50194010E949605029F1019112481E0FE
:100A2000E81AF1081A3014F4105D01C0195CF701DE
:100A30001083122FE32FCA01232B242B252B31F7F0
:100A4000B701C6010E949D04A1960FB6F894DEBFBF
:100A50000FBECDBFDF91CF911F910F91FF90EF900F
:100A6000DF90CF90BF90AF909F908F900895CF92DE
:100A7000DF92EF92FF920F931F93CF93DF93EC01DE
:100A80006A017B012115310579F4E881F981019032
:100A9000F081E02D642FDF91CF911F910F91FF9096
:100AA000EF90DF90CF9009942A303105E9F477FF79
:100AB0001AC06DE20E94B4048C0144275527BA0184
:100AC0004C195D096E097F092AE0CE010E94E104FC
:100AD000800F911FDF91CF911F910F91FF90EF90A9
:100AE000DF90CF9008952AE0B701A601CE01DF91F3
:100AF000CF911F910F91FF90EF90DF90CF900C94CA
:100B0000E1049A01AB01662757FD6095762F0C949E
:100B100037050E945D020E948700CCE6D3E00E9468
:100B20009F002097E1F30E946C03F9CFA1E21A2EF7
:100B3000AA1BBB1BFD010DC0AA1FBB1FEE1FFF1F81
:100B4000A217B307E407F50720F0A21BB30BE40BD1
:100B5000F50B661F771F881F991F1A9469F7609518
:100B60007095809590959B01AC01BD01CF010895D2
:100B7000EE0FFF1F0590F491E02D0994F894FFCF3C
:100B8000426567696E207377697463682074657362
:100B9000742E00636C6F736564006F70656E005334
:100BA000776974636800206E6F7720000000000092
:0C0BB000EF0275049802C402A802E402DF
:00000001FF
