:100000000C945C000C9479000C9479000C947900A9
:100010000C9479000C9479000C9479000C9479007C
:100020000C9479000C9479000C9479000C9479006C
:100030000C9479000C9479000C9479000C9479005C
:100040000C945F050C9479000C9479000C94790061
:100050000C9479000C9479000C9479000C9479003C
:100060000C9479000C947900000000070002010054
:100070000003040600000000000000000102040864
:100080001020408001020408102001020408102002
:10009000040404040404040402020202020203032E
:1000A0000303030300000000250028002B000000CC
:1000B0000000240027002A0011241FBECFEFD8E043
:1000C000DEBFCDBF11E0A0E0B1E0E6EAFDE002C096
:1000D00005900D92AA31B107D9F711E0AAE1B1E07C
:1000E00001C01D92A532B107E1F70E94C4060C942D
:1000F000D1060C94000061E0809116010E94580620
:1001000061E0809114010E94580661E08091120123
:100110000C9458060F931F93CF93DF9380910001A7
:100120000E94070590931B0180931A01C2E0D1E061
:1001300060E0809116010E94940620E041E0609109
:100140001401809112010E94240520E041E0609199
:100150001401809112010E94240520E041E0609189
:100160001401809112010E94240520E041E0609179
:100170001401809112010E94240520E041E0609169
:100180001401809112010E9424052881229641E0E9
:1001900060911401809112010E94240561E0809118
:1001A00016010E949406809100010E940705909319
:1001B0001B0180931A01BC01882777FD8095982F39
:1001C0000E94CE0581E0C231D80709F0B1CFC2E06C
:1001D000D1E060E0809116010E94940620E041E0A9
:1001E00060911401809112010E94240520E041E0F9
:1001F00060911401809112010E94240520E041E0E9
:1002000060911401809112010E94240520E041E0D8
:1002100060911401809112010E9424052881229688
:1002200041E060911401809112010E94240520E0B8
:1002300041E060911401809112010E94240561E067
:10024000809116010E949406809100010E9407058A
:1002500090931B0180931A01BC01882777FD80953C
:10026000982F0E94CE05E1E0C231DE0709F0B1CF40
:10027000C2E0D1E060E0809116010E94940620E087
:1002800041E060911401809112010E94240520E058
:1002900041E060911401809112010E94240520E048
:1002A00041E060911401809112010E94240528818F
:1002B000229641E060911401809112010E94240570
:1002C00020E041E060911401809112010E94240518
:1002D00020E041E060911401809112010E94240508
:1002E00061E0809116010E949406809100010E94B5
:1002F000070590931B0180931A01BC01882777FDA5
:100300008095982F0E94CE05F1E0C231DF0709F0F9
:10031000B1CFC2E0D1E060E0809116010E94940666
:1003200020E041E060911401809112010E942405B7
:1003300020E041E060911401809112010E942405A7
:100340002881229641E060911401809112010E945F
:10035000240520E041E060911401809112010E9487
:10036000240520E041E060911401809112010E9477
:10037000240520E041E060911401809112010E9467
:10038000240561E0809116010E949406809100018D
:100390000E94070590931B0180931A01BC018827D6
:1003A00077FD8095982F0E94CE0581E0C231D80755
:1003B00009F0B1CFC2E0D1E060E0809116010E9467
:1003C000940620E041E060911401809112010E94A6
:1003D00024052881229641E0609114018091120148
:1003E0000E94240520E041E06091140180911201F7
:1003F0000E94240520E041E06091140180911201E7
:100400000E94240520E041E06091140180911201D6
:100410000E94240520E041E06091140180911201C6
:100420000E94240561E0809116010E94940680914B
:1004300000010E94070590931B0180931A01BC01E3
:10044000882777FD8095982F0E94CE05E1E0C23184
:10045000DE0709F0B1CFC2E0D1E060E08091160183
:100460000E9494062881229641E0609114018091B7
:1004700012010E94240520E041E060911401809166
:1004800012010E94240520E041E060911401809156
:1004900012010E94240520E041E060911401809146
:1004A00012010E94240520E041E060911401809136
:1004B00012010E94240520E041E060911401809126
:1004C00012010E94240561E0809116010E949406A9
:1004D000809100010E94070590931B0180931A01EF
:1004E000BC01882777FD8095982F0E94CE05F1E00A
:1004F000CC30DF0709F0B1CF60E0809116010E9497
:10050000940620E041E060911401809112010E9464
:10051000240520E041E060911401809112010E94C5
:10052000240520E041E060911401809112010E94B5
:10053000240520E041E060911401809112010E94A5
:10054000240520E041E060911401809112010E9495
:10055000240520E041E060911401809112010E9485
:10056000240561E0809116010E94940680910001AB
:100570000E94070590931B0180931A01BC01660F2E
:10058000771F680F791F882777FD8095982F0E9425
:10059000CE05CCE0D1E060E0809116010E94940687
:1005A0002297288141E060911401809112010E94FC
:1005B000240520E041E060911401809112010E9425
:1005C000240520E041E060911401809112010E9415
:1005D000240520E041E060911401809112010E9405
:1005E000240520E041E060911401809112010E94F5
:1005F000240520E041E060911401809112010E94E5
:10060000240561E0809116010E949406809100010A
:100610000E94070590931B0180931A01BC01882753
:1006200077FD8095982F0E94CE0581E0C230D807D3
:1006300009F0B1CFC2E1D1E08E0160E080911601F6
:100640000E94940620E041E0609114018091120123
:100650000E94240502501109F801208141E06091B7
:100660001401809112010E94240520E041E0609174
:100670001401809112010E94240520E041E0609164
:100680001401809112010E94240520E041E0609154
:100690001401809112010E94240520E041E0609144
:1006A0001401809112010E94240561E080911601DD
:1006B0000E949406809100010E94070590931B01FF
:1006C00080931A01BC01882777FD8095982F0E949E
:1006D000CE05F1E002301F0709F0AFCF02E111E0D3
:1006E00060E0809116010E94940620E041E0609154
:1006F0001401809112010E94240520E041E06091E4
:100700001401809112010E94240502501109F80180
:10071000208141E060911401809112010E94240522
:1007200020E041E060911401809112010E942405B3
:1007300020E041E060911401809112010E942405A3
:1007400020E041E060911401809112010E94240593
:1007500061E0809116010E949406809100010E9440
:10076000070590931B0180931A01BC01882777FD30
:100770008095982F0E94CE05F1E002301F0709F006
:10078000AFCF02E111E060E0809116010E94940673
:1007900020E041E060911401809112010E94240543
:1007A00020E041E060911401809112010E94240533
:1007B00020E041E060911401809112010E94240523
:1007C00002501109F801208141E0609114018091EB
:1007D00012010E94240520E041E060911401809103
:1007E00012010E94240520E041E0609114018091F3
:1007F00012010E94240561E0809116010E94940676
:10080000809100010E94070590931B0180931A01BB
:10081000BC01882777FD8095982F0E94CE05F1E0D6
:1008200002301F0709F0AFCF02E111E060E08091D4
:1008300016010E94940620E041E06091140180912D
:1008400012010E94240520E041E060911401809192
:1008500012010E94240520E041E060911401809182
:1008600012010E94240520E041E060911401809172
:1008700012010E94240502501109F801208141E073
:1008800060911401809112010E94240520E041E052
:1008900060911401809112010E94240561E0809111
:1008A00016010E949406809100010E940705909312
:1008B0001B0180931A01BC01882777FD8095982F32
:1008C0000E94CE05F1E002301F0709F0AFCF60E0D3
:1008D000809116010E94940620E041E0609114018D
:1008E000809112010E94240520E041E060911401F2
:1008F000809112010E94240520E041E060911401E2
:10090000809112010E94240520E041E060911401D1
:10091000809112010E94240520E041E060911401C1
:10092000809112010E9424052297288141E0609164
:100930001401809112010E94240561E0809116014A
:100940000E949406809100010E94070590931B016C
:1009500080931A01BC01882777FD8095982F0E940B
:10096000CE0581E0C230D80709F0B1CF60E08091B8
:1009700016010E94940620E041E0609114018091EC
:1009800012010E94240520E041E060911401809151
:1009900012010E94240520E041E060911401809141
:1009A00012010E94240520E041E060911401809131
:1009B00012010E94240520E041E060911401809121
:1009C00012010E94240520E041E060911401809111
:1009D00012010E94240561E0809116010E94940694
:1009E000809100010E94070590931B0180931A01DA
:1009F000BC01660F771F680F791F882777FD8095E8
:100A0000982FDF91CF911F910F910C94CE058E30CE
:100A100008F08E5087702091180190E4299F900172
:100A20001124822B80937C0080917A0080648093D3
:100A30007A0080917A0086FDFCCF80917800209129
:100A4000790090E0922B0895BF92CF92DF92EF92BF
:100A5000FF920F931F93CF93DF93C82ED62EB42E01
:100A6000C7E0D0E0022F10E087E0E82EF12CB110B3
:100A700005C0C7018C1B9D0B980102C098018C2FEB
:100A800002C0359527958A95E2F7B90161707727FD
:100A90008C2D0E94940661E08D2D0E94940660E0EA
:100AA0008D2D0E949406219710F7DF91CF911F9111
:100AB0000F91FF90EF90DF90CF90BF9008951F921D
:100AC0000F920FB60F9211242F933F938F939F9302
:100AD000AF93BF9380911D0190911E01A0911F01C2
:100AE000B091200130911C0123E0230F2D3720F419
:100AF0000196A11DB11D05C026E8230F0296A11D78
:100B0000B11D20931C0180931D0190931E01A093A1
:100B10001F01B09320018091210190912201A091A9
:100B20002301B09124010196A11DB11D80932101E3
:100B300090932201A0932301B0932401BF91AF9120
:100B40009F918F913F912F910F900FBE0F901F900B
:100B500018953FB7F8948091210190912201A091BE
:100B60002301B091240126B5A89B05C02F3F19F0A1
:100B70000196A11DB11D3FBFBA2FA92F982F88271D
:100B8000820F911DA11DB11DBC01CD0142E0660F78
:100B9000771F881F991F4A95D1F70895CF92DF924A
:100BA000EF92FF92CF93DF936B017C010E94A90526
:100BB000EB01C114D104E104F10479F00E94A9050C
:100BC0006C1B7D0B683E7340A0F381E0C81AD1080E
:100BD000E108F108C851DC4FECCFDF91CF91FF90D5
:100BE000EF90DF90CF900895789484B5826084BDB3
:100BF00084B5816084BD85B5826085BD85B5816021
:100C000085BDEEE6F0E0808181608083E1E8F0E080
:100C10001082808182608083808181608083E0E8AF
:100C2000F0E0808181608083E1EBF0E0808184608E
:100C30008083E0EBF0E0808181608083EAE7F0E090
:100C400080818460808380818260808380818160F4
:100C500080838081806880831092C10008958330F2
:100C600081F028F4813099F08230A1F00895863027
:100C7000A9F08730B9F08430D1F4809180008F7D65
:100C800003C0809180008F7780938000089584B5A1
:100C90008F7702C084B58F7D84BD08958091B000A8
:100CA0008F7703C08091B0008F7D8093B00008954E
:100CB000CF93DF9390E0FC01E458FF4F2491FC01B7
:100CC000E057FF4F8491882361F190E0880F991FCE
:100CD000FC01E255FF4FC591D491FC01EC55FF4F4B
:100CE000A591B491611109C09FB7F89488812095AE
:100CF00082238883EC912E230BC0623061F49FB76E
:100D0000F8943881822F809583238883EC912E2B51
:100D10002C939FBF06C08FB7F894E8812E2B2883B1
:100D20008FBFDF91CF9108951F93CF93DF93282F2B
:100D300030E0F901E859FF4F8491F901E458FF4F81
:100D4000D491F901E057FF4FC491CC23C9F0162F7D
:100D500081110E942F06EC2FF0E0EE0FFF1FEC55E3
:100D6000FF4FA591B4918FB7F894111105C09C91D4
:100D7000ED2FE095E92302C0EC91ED2BEC938FBFB2
:100D8000DF91CF911F9108950E94F4050E947B008E
:100D9000C0E0D0E00E948A002097E1F30E940000AA
:060DA000F9CFF894FFCF2B
:100DA60005000100020004000800100020004000B9
:0A0DB60080000B000D000900010091
:00000001FF
