:100000000C9462000C948A000C948A000C948A0070
:100010000C948A000C948A000C948A000C948A0038
:100020000C948A000C948A000C948A000C948A0028
:100030000C948A000C948A000C948A000C948A0018
:100040000C94F4060C948A000C94B1050C94F405FD
:100050000C948A000C948A000C948A000C948A00F8
:100060000C948A000C948A00000000070002010032
:100070000003040600000000000000000102040864
:100080001020408001020408102001020408102002
:10009000040404040404040402020202020203032E
:1000A00003030303000000002300260029000000D2
:1000B0000000250028002B0000000000240027007D
:1000C0002A00B90611241FBECFEFD8E0DEBFCDBF96
:1000D00011E0A0E0B1E0E6E4FFE002C005900D927F
:1000E000A432B107D9F716E0A4E2B1E001C01D9235
:1000F000AB31B107E1F710E0C4ECD0E004C02297C7
:10010000FE010E949D07C23CD107C9F70E940A0563
:100110000C94A1070C94000040E855E260E070E008
:1001200088E695E00E942F0661E080910C010E9414
:10013000610361E080910A010E94610360E08091A7
:1001400008010E94610361E0809106010E94610341
:1001500061E0809104010E94610361E080910201ED
:100160000E94610361E0809100010C946103EF92B1
:10017000FF920F931F93CF93DF937C018B01EA01D2
:100180006EE071E088E695E00E9433044AE050E0BA
:10019000B70188E695E00E94020560E171E088E61B
:1001A00095E00E9433044AE050E0B80188E695E00B
:1001B0000E94020562E171E088E695E00E94330446
:1001C0004AE050E0BE0188E695E00E94020561E148
:1001D00071E088E695E0DF91CF911F910F91FF903C
:1001E000EF900C9450042F923F924F925F926F9237
:1001F0007F928F929F92AF92BF92CF92DF92EF92B7
:10020000FF920F931F93CF93DF93CDB7DEB728975D
:100210000FB6F894DEBF0FBECDBF88EA92E09E8392
:100220008D83612C712C812C912C21E030E0082CE5
:1002300001C0220F0A94EAF741E060910A0180911F
:100240000C010E94FD0260E0809106010E949D0366
:1002500061E0809106010E949D0308E615E058E2E6
:10026000E52E55E0F52E60E0809100010E949D038F
:10027000809108010E94CD03D8019E938E938D0139
:1002800061E0809100010E949D03B5E008321B07E8
:1002900051F780E090E0F701219131917F01FC015D
:1002A000E60DF71DE855FB4F3183208340968038DB
:1002B000910589F7A8E3B5E080E090E02D913D91AC
:1002C000FC01E60DF71DE855FC4F31832083409675
:1002D0008038910599F780E090E0ED81FE81E80F8C
:1002E000F91FDC01A85DBA4F90962D913C91919732
:1002F0003183208302968031910579F7A8E5B5E036
:1003000080E090E02D913D91FC01E60DF71DE85550
:10031000FE4F3183208340968038910599F788EA13
:1003200094E09C838B83A8EAB1E0BA83A98388E236
:10033000A82E81E0B82E98E2C92E92E0D92E28EAA4
:10034000222E23E0322E38E2E32E33E0F32E08E2B1
:1003500014E048EA442E42E0542E18861F82EB81B6
:10036000FC818081918181309105A9F4D8018D9122
:100370009C91019729F141E050E06F81788581E0FF
:1003800090E00E94B700EB81FC8180819181D801CF
:100390008D939C9315C0F8012081318182179307BA
:1003A00079F040E050E06F81788581E090E00E9434
:1003B000B700AB81BC818D919C91F80191838083C2
:1003C000D1018D919C9181309105A1F4F70180813B
:1003D0009181019719F141E050E06F81788582E0C9
:1003E00090E00E94B700D1018D919C91F70191831B
:1003F000808314C0D7012D913C918217930771F02F
:1004000040E050E06F81788582E090E00E94B70084
:10041000F10180819181D7018D939C93F2018081BC
:10042000918181309105A1F4D6018D919C91019724
:1004300019F141E050E06F81788583E090E00E94FF
:10044000B700F20180819181D6018D939C9314C0F5
:10045000F601208131818217930771F040E050E06E
:100460006F81788583E090E00E94B700D2018D9182
:100470009C91F60191838083A981BA818D919C9191
:1004800081309105A9F4F50180819181019729F1CD
:1004900041E050E06F81788584E090E00E94B700F1
:1004A000A981BA818D919C91F5019183808315C0BA
:1004B000D5012D913C918217930779F040E050E0EF
:1004C0006F81788584E090E00E94B700E981FA812D
:1004D00080819181D5018D939C93EF81F885319630
:1004E000F887EF838B819C8102969C838B83A98103
:1004F000BA811296BA83A983B2E0AB0EB11CE2E0D6
:100500004E0E511CF2E0CF0ED11C42E0240E311CE5
:1005100082E0E80EF11C0E5F1F4FAF81B885A0345A
:10052000B10509F01CCFEAE3F5E080E090E028E0B7
:1005300030E052914291022E02C0440F551F0A949E
:10054000E2F7842B952B2150310998F790932701DE
:100550008093260120912401309125018217930771
:1005600019F160E0809104010E949D0320E041E0C8
:1005700060910001809102010E94FD0220912601FC
:1005800041E060910001809102010E94FD0261E062
:10059000809104010E949D03809126019091270182
:1005A0009093250180932401EFEF8E1A9E0AF2E0CA
:1005B0006F0E711C8D819E8140969E838D8398E085
:1005C0008916910409F031CE28960FB6F894DEBF53
:1005D0000FBECDBFDF91CF911F910F91FF90EF9094
:1005E000DF90CF90BF90AF909F908F907F906F9053
:1005F0005F904F903F902F900895BF92CF92DF92DF
:10060000EF92FF920F931F93CF93DF93C82ED62EB6
:10061000B42EC7E0D0E0022F10E087E0E82EF12CE6
:10062000B11005C0C7018C1B9D0B980102C0980139
:100630008C2F02C0359527958A95E2F7B901617034
:1006400077278C2D0E949D0361E08D2D0E949D03D4
:1006500060E08D2D0E949D03219710F7DF91CF91CF
:100660001F910F91FF90EF90DF90CF90BF90089572
:10067000833081F028F4813099F08230A1F0089520
:100680008630A9F08730B9F08430D1F480918000B1
:100690008F7D03C0809180008F77809380000895C4
:1006A00084B58F7702C084B58F7D84BD0895809115
:1006B000B0008F7703C08091B0008F7D8093B00031
:1006C0000895CF93DF9390E0FC01E458FF4F24910D
:1006D000FC01E057FF4F8491882361F190E0880F7F
:1006E000991FFC01E854FF4FC591D491FC01E255DC
:1006F000FF4FA591B491611109C09FB7F89488810B
:10070000209582238883EC912E230BC0623061F404
:100710009FB7F8943881822F809583238883EC914A
:100720002E2B2C939FBF06C08FB7F894E8812E2BF9
:1007300028838FBFDF91CF9108951F93CF93DF93CD
:10074000282F30E0F901E859FF4F8491F901E4586E
:10075000FF4FD491F901E057FF4FC491CC23C9F06A
:10076000162F81110E943803EC2FF0E0EE0FFF1FCF
:10077000E255FF4FA591B4918FB7F894111105C0C0
:100780009C91ED2FE095E92302C0EC91ED2BEC93C9
:100790008FBFDF91CF911F910895CF93DF93282FC3
:1007A00030E0F901E859FF4F8491F901E458FF4F17
:1007B000D491F901E057FF4FC491CC2391F08111FE
:1007C0000E943803EC2FF0E0EE0FFF1FEC55FF4FB7
:1007D000A591B491EC91ED2381E090E021F480E0CB
:1007E00002C080E090E0DF91CF910895CF92DF9238
:1007F000EF92FF920F931F93CF93DF936C01EB0166
:100800007B01E40EF51E00E010E0CE15DF0561F07F
:100810006991D601ED91FC910190F081E02DC60126
:100820000995080F191FF1CFC801DF91CF911F91D2
:100830000F91FF90EF90DF90CF90089561157105B3
:1008400079F0FB0101900020E9F73197AF01461BD9
:10085000570BDC01ED91FC910280F381E02D0994AE
:1008600080E090E008950C941E04DC01ED91FC9171
:100870000190F081E02D09940F931F93CF93DF93A4
:10088000EC016DE00E9435048C016AE0CE010E940B
:100890003504800F911FDF91CF911F910F91089523
:1008A0000F931F93CF93DF93EC010E941E048C01E2
:1008B000CE010E943C04800F911FDF91CF911F91C8
:1008C0000F9108958F929F92AF92BF92CF92DF9235
:1008D000EF92FF920F931F93CF93DF93CDB7DEB7C5
:1008E000A1970FB6F894DEBF0FBECDBF6C01142FD9
:1008F000E52FCB01022F19A2223008F40AE07E0175
:1009000021E2E20EF11C802E912CA12CB12C612F42
:100910007E2FA50194010E947907029F10191124CE
:1009200081E0E81AF1081A3014F4105D01C0195C76
:10093000F7011083122FE32FCA01232B242B252B21
:1009400031F7B701C6010E941E04A1960FB6F894B4
:10095000DEBF0FBECDBFDF91CF911F910F91FF90F2
:10096000EF90DF90CF90BF90AF909F908F900895C1
:10097000CF92DF92EF92FF920F931F93CF93DF936B
:10098000EC016A017B012115310579F4E881F981D7
:100990000190F081E02D642FDF91CF911F910F9195
:1009A000FF90EF90DF90CF9009942A303105E9F461
:1009B00077FF1AC06DE20E9435048C014427552749
:1009C000BA014C195D096E097F092AE0CE010E9427
:1009D0006204800F911FDF91CF911F910F91FF90C3
:1009E000EF90DF90CF9008952AE0B701A601CE01E5
:1009F000DF91CF911F910F91FF90EF90DF90CF90FB
:100A00000C9462049A01AB01662757FD6095762F1E
:100A10000C94B8040E943E070E948C00CBEED5E0F7
:100A20000E94F3002097E1F30E94EB05F9CFFC014F
:100A300024853585F901E05CFF4F808191813296F4
:100A400020813181821B930B8F7399270895DC01DC
:100A50001C96ED91FC911D97DF01A05CBF4F2D917D
:100A60003C91119712968D919C91119728173907F7
:100A700039F08D919C91E80FF91F808190E00895E5
:100A80008FEF9FEF0895FC01A485B585FD01E05C23
:100A9000FF4F20813181329680819181281739075B
:100AA00079F080819181A80FB91F8C9120813181CB
:100AB0002F5F3F4F2F7333273183208390E00895BA
:100AC0008FEF9FEF0895FC0181A1882329F0A4896D
:100AD000B5898C9186FFFBCF11A208950F931F93C8
:100AE000CF93DF93FC01A685B7858D01005C1F4F76
:100AF000E8018881998101968F739927AD014E5B3A
:100B00005F4FEA012881398182179307D1F3E80109
:100B100028813981A20FB31F6C93A685B785A05C8D
:100B2000BF4F11969C938E93A689B7892C9181E033
:100B300090E0078C02C0880F991F0A94E2F7822B7D
:100B40008C9381E081A30488F589E02D8081806405
:100B5000808381E090E0DF91CF911F910F91089504
:100B600008951F920F920FB60F9211242F934F9357
:100B70005F938F939F93EF93FF938091C00082FDCB
:100B80001CC02091C60080910E0690910F06019620
:100B90008F7399274091100650911106841795077D
:100BA00071F0E0910E06F0910F06E253FA4F2083A8
:100BB00090930F0680930E0602C08091C600FF91AD
:100BC000EF919F918F915F914F912F910F900FBE59
:100BD0000F901F90189588E695E00E941705892BC5
:100BE00011F00C94B00508951F920F920FB60F925A
:100BF00011242F933F938F939F93EF93FF93209113
:100C0000CA053091CB058091CC059091CD05281770
:100C1000390731F48091C1008F7D8093C10014C0E9
:100C2000E091CC05F091CD05E657FA4F20818091F7
:100C3000CC059091CD0501968F7399279093CD05A2
:100C40008093CC052093C600FF91EF919F918F91E7
:100C50003F912F910F900FBE0F901F901895CF923C
:100C6000DF92EF92FF920F931F93CF93DF93EC01EC
:100C70006A017B01411581EE58076105710511F18B
:100C8000EC89FD8981E090E008A002C0880F991FDF
:100C90000A94E2F7808360E079E08DE390E0A701B9
:100CA00096010E94790789019A01015011092109D1
:100CB000310936952795179507959801011580E11B
:100CC0001807A8F0EC89FD89108260E874E88EE1CD
:100CD00090E0A70196010E947907DA01C901019706
:100CE000A109B109B695A795979587959C01E889C3
:100CF000F9893083EA89FB89208319A2EE89FF896B
:100D0000408181E090E09C010C8C02C0220F331FD7
:100D10000A94E2F7242B2083EE89FF8940819C010D
:100D20000D8C02C0220F331F0A94E2F7242B20837C
:100D3000EE89FF8940819C010E8C02C0220F331F77
:100D40000A94E2F7242B2083EE89FF8920810F8CFF
:100D500002C0880F991F0A94E2F78095822380834E
:100D6000DF91CF911F910F91FF90EF90DF90CF9087
:100D70000895E8E6F5E01382128288EE93E0A0E0A1
:100D8000B0E084839583A683B78388E191E0918363
:100D900080838EEC95E0958784878AE895E0978735
:100DA000868785EC90E0918B808B84EC90E0938B30
:100DB000828B80EC90E0958B848B81EC90E0978B1C
:100DC000868B82EC90E0918F808F86EC90E0938F01
:100DD000828F84E0848F83E0858F87E0868F85E033
:100DE000878F81E080A308951F920F920FB60F9214
:100DF00011242F933F938F939F93AF93BF93809131
:100E0000130690911406A0911506B0911606309124
:100E1000120623E0230F2D3720F40196A11DB11DEA
:100E200005C026E8230F0296A11DB11D20931206CE
:100E30008093130690931406A0931506B09316069C
:100E40008091170690911806A0911906B0911A0684
:100E50000196A11DB11D8093170690931806A093CB
:100E60001906B0931A06BF91AF919F918F913F9150
:100E70002F910F900FBE0F901F901895789484B506
:100E8000826084BD84B5816084BD85B5826085BD86
:100E900085B5816085BDEEE6F0E08081816080836C
:100EA000E1E8F0E01082808182608083808181604F
:100EB0008083E0E8F0E0808181608083E1EBF0E016
:100EC000808184608083E0EBF0E0808181608083BA
:100ED000EAE7F0E0808184608083808182608083A3
:100EE0008081816080838081806880831092C100CE
:100EF0000895A1E21A2EAA1BBB1BFD010DC0AA1F5B
:100F0000BB1FEE1FFF1FA217B307E407F50720F072
:100F1000A21BB30BE40BF50B661F771F881F991FED
:100F20001A9469F760957095809590959B01AC0136
:100F3000BD01CF010895EE0FFF1F0590F491E02D44
:060F40000994F894FFCFB4
:100F46000D000B0009000A000C00030002006B00F4
:100F56002D003A00000000006E05F6031705430554
:040F660027056305F3
:00000001FF
