:100000000C945D000C9485000C9485000C94850084
:100010000C9485000C9485000C9485000C9485004C
:100020000C9485000C9485000C9485000C9485003C
:100030000C9485000C9485000C9485000C9485002C
:100040000C9405010C9485000C9411030C9454033A
:100050000C9485000C9485000C9485000C9485000C
:100060000C9485000C94850000000007000201003C
:100070000003040600000000000000000102040864
:100080001020408001020408102001020408102002
:10009000040404040404040402020202020203032E
:1000A0000303030300000000250028002B000000CC
:1000B0000000240027002A00190411241FBECFEFDE
:1000C000D8E0DEBFCDBF11E0A0E0B1E0ECE4F9E0A4
:1000D00002C005900D92A231B107D9F711E0A2E15B
:1000E000B1E001C01D92A83CB107E1F710E0CAEBF6
:1000F000D0E004C02297FE010E94A004C83BD107B3
:10010000C9F70E946A020C94A4040C940000DC015C
:10011000ED91FC910190F081E02D099442E15AE7C4
:1001200060E070E08EE191E00E948F0361E08DE07D
:100130000E94FE0160E08DE00C943A028EE191E0B5
:100140000E947702892B09F44CC08EE191E00E9455
:10015000A302809314018EE191E00E94A302809398
:1001600013018EE191E00E94A3028093120120917D
:10017000140190910001291334C0909113019C3314
:1001800081F5882371F161E08DE00E943A0260E917
:1001900070E08EE191E00E9487006CE370E08EE1F8
:1001A00091E00E94870064E670E08EE191E00E9499
:1001B000870068EC70E080E090E00E94740160E9E4
:1001C00070E08EE191E00E9487006CE370E08EE1C8
:1001D00091E00E94870060E070E08EE191E00E9473
:1001E00087008EE191E00E94770203970CF0A6CF82
:1001F00008950E949E0064E670E080E090E00E9416
:10020000740160E08DE00C943A021F920F920FB6D9
:100210000F9211242F933F938F939F93AF93BF938C
:100220008091160190911701A0911801B0911901C8
:100230003091150123E0230F2D3720F40196A11DE5
:10024000B11D05C026E8230F0296A11DB11D209304
:1002500015018093160190931701A0931801B09394
:10026000190180911A0190911B01A0911C01B0917C
:100270001D010196A11DB11D80931A0190931B01D0
:10028000A0931C01B0931D01BF91AF919F918F91DD
:100290003F912F910F900FBE0F901F9018953FB771
:1002A000F89480911A0190911B01A0911C01B091CA
:1002B0001D0126B5A89B05C02F3F19F00196A11D71
:1002C000B11D3FBFBA2FA92F982F8827820F911DEC
:1002D000A11DB11DBC01CD0142E0660F771F881F33
:1002E000991F4A95D1F70895CF92DF92EF92FF922E
:1002F000CF93DF936B017C010E944F01EB01C1148E
:10030000D104E104F10479F00E944F016C1B7D0BD4
:10031000683E7340A0F381E0C81AD108E108F108F3
:10032000C851DC4FECCFDF91CF91FF90EF90DF9081
:10033000CF900895789484B5826084BD84B581603F
:1003400084BD85B5826085BD85B5816085BDEEE6DD
:10035000F0E0808181608083E1E8F0E010828081BC
:1003600082608083808181608083E0E8F0E080812A
:1003700081608083E1EBF0E0808184608083E0EB4A
:10038000F0E0808181608083EAE7F0E08081846032
:10039000808380818260808380818160808380818E
:1003A000806880831092C1000895833081F028F422
:1003B000813099F08230A1F008958630A9F087301D
:1003C000B9F08430D1F4809180008F7D03C080919A
:1003D00080008F7780938000089584B58F7702C066
:1003E00084B58F7D84BD08958091B0008F7703C060
:1003F0008091B0008F7D8093B0000895CF93DF93FC
:1004000090E0FC01E458FF4F2491FC01E057FF4FBE
:100410008491882361F190E0880F991FFC01E255D7
:10042000FF4FC591D491FC01EC55FF4FA591B491BC
:10043000611109C09FB7F894888120958223888331
:10044000EC912E230BC0623061F49FB7F894388191
:10045000822F809583238883EC912E2B2C939FBF32
:1004600006C08FB7F894E8812E2B28838FBFDF91C9
:10047000CF9108951F93CF93DF93282F30E0F90198
:10048000E859FF4F8491F901E458FF4FD491F901E5
:10049000E057FF4FC491CC23C9F0162F81110E9461
:1004A000D501EC2FF0E0EE0FFF1FEC55FF4FA591AB
:1004B000B4918FB7F894111105C09C91ED2FE09580
:1004C000E92302C0EC91ED2BEC938FBFDF91CF912C
:1004D0001F9108950E949A010E948E00CBE4D3E000
:1004E0000E94F9002097E1F30E944B03F9CFFC0131
:1004F00024853585F901E05CFF4F8081918132963A
:1005000020813181821B930B8F7399270895DC0121
:100510001C96ED91FC911D97DF01A05CBF4F2D91C2
:100520003C91119712968D919C911197281739073C
:1005300039F08D919C91E80FF91F808190E008952A
:100540008FEF9FEF0895FC01A485B585FD01E05C68
:10055000FF4F2081318132968081918128173907A0
:1005600079F080819181A80FB91F8C912081318110
:100570002F5F3F4F2F7333273183208390E00895FF
:100580008FEF9FEF0895FC0181A1882329F0A489B2
:10059000B5898C9186FFFBCF11A208950F931F930D
:1005A000CF93DF93FC01A685B7858D01005C1F4FBB
:1005B000E8018881998101968F739927AD014E5B7F
:1005C0005F4FEA012881398182179307D1F3E8014F
:1005D00028813981A20FB31F6C93A685B785A05CD3
:1005E000BF4F11969C938E93A689B7892C9181E079
:1005F00090E0078C02C0880F991F0A94E2F7822BC3
:100600008C9381E081A30488F589E02D808180644A
:10061000808381E090E0DF91CF911F910F91089549
:1006200008951F920F920FB60F9211242F934F939C
:100630005F938F939F93EF93FF938091C00082FD10
:100640001CC02091C6008091C4019091C501019603
:100650008F7399274091C6015091C7018417950760
:1006600071F0E091C401F091C501EC57FE4F208379
:100670009093C5018093C40102C08091C600FF9190
:10068000EF919F918F915F914F912F910F900FBE9E
:100690000F901F9018958EE191E00E947702892BB0
:1006A00011F00C94100308951F920F920FB60F9241
:1006B00011242F933F938F939F93EF93FF93209158
:1006C00080013091810180918201909183012817EE
:1006D000390731F48091C1008F7D8093C10014C02F
:1006E000E0918201F0918301E05CFE4F20818091D6
:1006F00082019091830101968F73992790938301D2
:10070000809382012093C600FF91EF919F918F917A
:100710003F912F910F900FBE0F901F901895CF9281
:10072000DF92EF92FF920F931F93CF93DF93EC0131
:100730006A017B01411581EE58076105710511F1D0
:10074000EC89FD8981E090E008A002C0880F991F24
:100750000A94E2F7808360E079E08DE390E0A701FE
:1007600096010E947C0489019A0101501109210916
:10077000310936952795179507959801011580E160
:100780001807A8F0EC89FD89108260E874E88EE112
:1007900090E0A70196010E947C04DA01C90101974B
:1007A000A109B109B695A795979587959C01E88908
:1007B000F9893083EA89FB89208319A2EE89FF89B0
:1007C000408181E090E09C010C8C02C0220F331F1D
:1007D0000A94E2F7242B2083EE89FF8940819C0153
:1007E0000D8C02C0220F331F0A94E2F7242B2083C2
:1007F000EE89FF8940819C010E8C02C0220F331FBD
:100800000A94E2F7242B2083EE89FF8920810F8C44
:1008100002C0880F991F0A94E2F780958223808393
:10082000DF91CF911F910F91FF90EF90DF90CF90CC
:100830000895EEE1F1E01382128288EE93E0A0E0E9
:10084000B0E084839583A683B78385E091E09183AC
:10085000808384E891E09587848780E491E097879E
:10086000868785EC90E0918B808B84EC90E0938B75
:10087000828B80EC90E0958B848B81EC90E0978B61
:10088000868B82EC90E0918F808F86EC90E0938F46
:10089000828F84E0848F83E0858F87E0868F85E078
:1008A000878F81E080A30895CF92DF92EF92FF922D
:1008B0000F931F93CF93DF936C01EB017B01E40E49
:1008C000F51E00E010E0CE15DF0561F06991D6015C
:1008D000ED91FC910190F081E02DC6010995080F82
:1008E000191FF1CFC801DF91CF911F910F91FF9098
:1008F000EF90DF90CF900895A1E21A2EAA1BBB1BA8
:10090000FD010DC0AA1FBB1FEE1FFF1FA217B307DB
:10091000E407F50720F0A21BB30BE40BF50B661FF1
:10092000771F881F991F1A9469F7609570958095B5
:1009300090959B01AC01BD01CF010895EE0FFF1F03
:0C0940000590F491E02D0994F894FFCF8D
:10094C009000000000CE0254047702A3028702C379
:02095C00020097
:00000001FF
