:100000000C945C000C9479000C9479000C947900A9
:100010000C9479000C9479000C9479000C9479007C
:100020000C9479000C9479000C9479000C9479006C
:100030000C9479000C9479000C9479000C9479005C
:100040000C9433010C9479000C9479000C94790091
:100050000C9479000C9479000C9479000C9479003C
:100060000C9479000C947900000000070002010054
:100070000003040600000000000000000102040864
:100080001020408001020408102001020408102002
:10009000040404040404040402020202020203032E
:1000A0000303030300000000250028002B000000CC
:1000B0000000240027002A0011241FBECFEFD8E043
:1000C000DEBFCDBF11E0A0E0B1E0EEE4F5E002C09C
:1000D00005900D92A830B107D9F711E0A8E0B1E082
:1000E00001C01D92A231B107E1F70E9498020C9461
:1000F000A5020C94000061E083E00E942C0261E004
:1001000082E00C942C022091080140E063E082E040
:100110000E94F80060ED77E080E090E00E94A2018C
:100120002091070140E063E082E00E94F80060ED6A
:1001300077E080E090E00E94A2012091060140E07B
:1001400063E082E00E94F80060ED77E080E090E0FC
:100150000E94A2012091050140E063E082E00E943C
:10016000F80060ED77E080E090E00E94A20120912D
:10017000040140E063E082E00E94F80060ED77E077
:1001800080E090E00E94A2012091030140E063E042
:1001900082E00E94F80060ED77E080E090E00E944D
:1001A000A2012091020140E063E082E00E94F80099
:1001B00060ED77E080E090E00E94A20120910101D3
:1001C00040E063E082E00E94F80060ED77E080E0CC
:1001D00090E00E94A2012091000140E063E082E0F3
:1001E0000E94F80060ED77E080E090E00C94A201BE
:1001F000BF92CF92DF92EF92FF920F931F93CF9314
:10020000DF93C82ED62EB42EC7E0D0E0022F10E028
:1002100087E0E82EF12CB11005C0C7018C1B9D0BA7
:10022000980102C098018C2F02C0359527958A95B8
:10023000E2F7B901617077278C2D0E94680261E0B6
:100240008D2D0E94680260E08D2D0E94680221972A
:1002500010F7DF91CF911F910F91FF90EF90DF90FA
:10026000CF90BF9008951F920F920FB60F92112456
:100270002F933F938F939F93AF93BF9380910A01E6
:1002800090910B01A0910C01B0910D0130910901E9
:1002900023E0230F2D3720F40196A11DB11D05C0C9
:1002A00026E8230F0296A11DB11D2093090180931A
:1002B0000A0190930B01A0930C01B0930D01809162
:1002C0000E0190910F01A0911001B09111010196C2
:1002D000A11DB11D80930E0190930F01A0931001F9
:1002E000B0931101BF91AF919F918F913F912F9149
:1002F0000F900FBE0F901F9018953FB7F894809104
:100300000E0190910F01A0911001B091110126B53D
:10031000A89B05C02F3F19F00196A11DB11D3FBF3D
:10032000BA2FA92F982F8827820F911DA11DB11DCB
:10033000BC01CD0142E0660F771F881F991F4A95C7
:10034000D1F70895CF92DF92EF92FF92CF93DF9390
:100350006B017C010E947D01EB01C114D104E10419
:10036000F10479F00E947D016C1B7D0B683E7340A7
:10037000A0F381E0C81AD108E108F108C851DC4FA8
:10038000ECCFDF91CF91FF90EF90DF90CF90089569
:10039000789484B5826084BD84B5816084BD85B560
:1003A000826085BD85B5816085BDEEE6F0E0808127
:1003B00081608083E1E8F0E0108280818260808348
:1003C000808181608083E0E8F0E0808181608083CB
:1003D000E1EBF0E0808184608083E0EBF0E08081FD
:1003E00081608083EAE7F0E080818460808380819F
:1003F0008260808380818160808380818068808347
:100400001092C1000895833081F028F4813099F072
:100410008230A1F008958630A9F08730B9F0843099
:10042000D1F4809180008F7D03C0809180008F7710
:1004300080938000089584B58F7702C084B58F7D46
:1004400084BD08958091B0008F7703C08091B00083
:100450008F7D8093B0000895CF93DF9390E0FC01EF
:10046000E458FF4F2491FC01E057FF4F849188230B
:1004700061F190E0880F991FFC01E255FF4FC59193
:10048000D491FC01EC55FF4FA591B491611109C0C5
:100490009FB7F8948881209582238883EC912E233E
:1004A0000BC0623061F49FB7F8943881822F809539
:1004B00083238883EC912E2B2C939FBF06C08FB78C
:1004C000F894E8812E2B28838FBFDF91CF91089578
:1004D0001F93CF93DF93282F30E0F901E859FF4FA6
:1004E0008491F901E458FF4FD491F901E057FF4F8F
:1004F000C491CC23C9F0162F81110E940302EC2F66
:10050000F0E0EE0FFF1FEC55FF4FA591B4918FB7B0
:10051000F894111105C09C91ED2FE095E92302C0DC
:10052000EC91ED2BEC938FBFDF91CF911F9108954C
:100530000E94C8010E947B00C0E0D0E00E948300BE
:0E0540002097E1F30E940000F9CFF894FFCF5E
:08054E008040201008040201A6
:00000001FF
