:100000000C9473000C949B000C949B000C949B002C
:100010000C949B000C949B000C949B000C949B00F4
:100020000C949B000C949B000C949B000C949B00E4
:100030000C949B000C949B000C949B000C949B00D4
:100040000C94B1090C949B000C940E0C0C94510C64
:100050000C949B000C949B000C949B000C949B00B4
:100060000C949B000C949B00B3052706FA05DD0554
:100070004F064F06AF054F06AF054F06AF05AF055C
:10008000AF054F06AF05AF050000000700020100F5
:100090000003040600000000000000000102040844
:1000A00010204080010204081020010204081020E2
:1000B000040404040404040402020202020203030E
:1000C00003030303000000002300260029000000B2
:1000D0000000250028002B0000000000240027005D
:1000E0002A000A09160D11241FBECFEFD8E0DEBF8B
:1000F000CDBF11E0A0E0B1E0E6E4FBE102C0059075
:100100000D92AA36B107D9F718E0AAE6B1E001C00E
:100110001D92AB3AB107E1F710E0C6EED0E004C0A3
:100120002297FE010E94890DC23ED107C9F70E94A5
:10013000670B0C94A10D0C940000DC01ED91FC9177
:100140000190F081E02D0994CF93DF93C0ECD1E0D2
:10015000E0E0F1E0DF0180E090E0699179914D917C
:100160005D91649F9001659F300D749F300D112447
:10017000820F931F21E0A031B20779F790936B01B2
:1001800080936A01C0EDD1E0A0E0B1E080E090E0B2
:10019000699179914D915D91649F9001659F300DBA
:1001A000749F300D1124820F931F21E0A031B207FC
:1001B00079F790936D0180936C01C0EED1E0A0E0DF
:1001C000B1E080E090E0699179914D915D91649FFB
:1001D0009001659F300D749F300D1124820F931F85
:1001E00021E0A031B20779F790936F0180936E01FF
:1001F000C0EFD1E0A0E0B1E080E090E069917991BA
:100200004D915D91649F9001659F300D749F300DFD
:100210001124820F931F21E0A031B20779F7909348
:10022000710180937001C0E0D2E0A0E0B1E080E015
:1002300090E0699179914D915D91649F9001659FE6
:10024000300D749F300D1124820F931F21E0A031D7
:10025000B20779F79093730180937201A0E1B2E045
:1002600080E090E06D917D9141915191649F90016A
:10027000659F300D749F300D1124820F931F21E074
:10028000E031F20779F790937701809376019093AC
:1002900075018093740160E080914E010E94E60A2E
:1002A0002091740141E060914A0180914C010E94CB
:1002B00076092091720141E060914A0180914C01E0
:1002C0000E9476092091700141E060914A0180917D
:1002D0004C010E94760920916E0141E060914A0133
:1002E00080914C010E94760920916C0141E060915F
:1002F0004A0180914C010E94760920916A0141E0F7
:1003000060914A0180914C010E94760961E08091E0
:100310004E01DF91CF910C94E60A853039F46F37A6
:1003200029F461E0809148010C94E60AE62FF0E0A0
:10033000EE0FFF1FE858FE4F81E090E0918380832D
:100340000C94A400853039F46F3729F460E0809173
:1003500048010C94E60AE62FF0E0EE0FFF1FE85884
:10036000FE4F118210820C94A400DC011A968D912C
:100370009C911B97813F910509F4A9C034F5803BFE
:10038000910509F453C07CF480399105E1F1803A7C
:10039000910509F469C08038910509F0C6C0FD01D6
:1003A000E25FFE4F64C0803D910509F46FC02CF4FC
:1003B000803C910509F46EC00895803E9105D1F10D
:1003C000803F910509F475C008958A3F910511F1A8
:1003D00074F4833F910509F493C00CF47CC0863F0C
:1003E000910509F498C0883F910589F008958C3FE4
:1003F0009105B1F094F08E3F9105A9F08F3F9105E2
:1004000009F48CC00895FD01E05FFE4F30C0AA5D85
:10041000BE4F86C0A85DBE4F83C0A65DBE4F80C0E4
:10042000A45DBE4F7DC0A25DBE4F7AC0FD01EC5EF3
:10043000FE4F1DC0FD01E65EFE4F0190F081E02DF4
:10044000309709F472C01D966C911D976F7720E864
:10045000629FB00111241C968C911C978F77682B9A
:10046000705219968C910994FD01EE5EFE4F019039
:10047000F081E02D309709F458C01D964C911D97DE
:100480001C966C911C9719968C910994FD01E85E5D
:10049000FE4F03C0FD01EA5EFE4F0190F081E02DAA
:1004A000309709F442C01C966C911C9719968C9158
:1004B0000994FD01E45EFE4F0190F081E02D30973C
:1004C000A1F11C966C911C97CD010E960994FD012B
:1004D000E25EFE4F18C0FD01E05EFE4F0190F0812C
:1004E000E02D309711F11D968C911D978F7720E8A4
:1004F000829FC00111241C962C912F77822B099486
:10050000FD01EE5DFE4F0190F081E02D309769F026
:100510001C968C910994AC5DBE4F02C0A05DBE4F8D
:10052000ED91FC91309709F0099408950F931F9372
:10053000CF93DF938C01EB016D3F710554F46A3F5B
:10054000710564F4663F710549F0683F710599F4DF
:1005500005C0CB018E5F9109029768F4F801EC5C4D
:10056000FE4F80819181DC01ED91FC910190F08141
:10057000E02D6C2F0995C63FD10521F4F801ED5C03
:10058000FE4F1082DF91CF911F910F910895DF925E
:10059000EF92FF920F931F93CF93DF937B01122F64
:1005A0000150003118F4603871052CF4FC01ED5C49
:1005B000FE4F10824BC0613E7105CCF54F77D42EB3
:1005C000602F6E29FC01ED5CFE4F2081EC01CC5CBC
:1005D000DE4F261751F0608388819981DC01ED910F
:1005E000FC910190F081E02D099588819981DC01D1
:1005F000ED91FC910190F081E02D6D2D0995E8942D
:10060000E4F8B0ECEB16F10409F188819981DC0182
:10061000ED91FC91612F6F770190F081E02DDF91DA
:10062000CF911F910F91FF90EF90DF9009949B0164
:10063000265F31092A30310548F4DF91CF911F91AF
:100640000F91FF90EF90DF900C949602DF91CF9185
:100650001F910F91FF90EF90DF9008959C018F7C88
:100660008038910561F0203D310549F081E0203E60
:10067000310539F0203C310521F080E0089581E01A
:100680000895089587FF0DC09CE0980F923048F0C0
:10069000982F9B7F993F29F0803F08F4807F90E05E
:1006A000089580E090E008952F923F924F925F92DC
:1006B0006F927F928F929F92AF92BF92CF92DF9272
:1006C000EF92FF920F931F93CF93DF931F92CDB7BB
:1006D000DEB71C018C010C5C1E4F82E0E82EF12C71
:1006E00093E0C92ED12CAA24AA94B12C30EF532E1A
:1006F00088248394912CD8018D919C91DC01ED91FB
:10070000FC910480F581E02D0995892B09F4A4C1A1
:10071000F80180819181DC01ED91FC910680F781E7
:10072000E02D09953C01F101278130852115310526
:1007300009F0CAC082834080842D0E9442030E9437
:100740002E03882369F067FC0BC0D10112964C92EE
:10075000129713966C92139718969C928E921797F5
:10076000F1017280872D0E944203813F910509F4B7
:100770005EC06CF5803B910509F45FC06CF4803974
:10078000910509F45AC0803A910509F456C08038A1
:10079000910509F056C051C0803D910509F447C04C
:1007A0002CF4803C910509F442C04BC0803E910579
:1007B00009F443C0803F910509F043C0D10116966A
:1007C000BC92AE9215971C921E965C9241C0883FD7
:1007D0009105A9F044F4833F910549F174F1863FF6
:1007E000910569F02EC08A3F91055CF18D3F91051E
:1007F00034F09C012E5F31092230310510F5D10112
:100800001B969C938E931A9719961C9219971C9677
:100810001C921C971D961C92F101E35FFE4F81E034
:100820008083F101108617821682158216C1D101CC
:100830001696FC92EE9215970BC0F101D682C582F6
:1008400007C0F1011086178216821582108204C13A
:10085000D10117962D913C91189715964D915C9169
:100860001697BA01615071092617370738F11B96A0
:100870009C938E931A97872D8F7077247394780E9C
:1008800019967C92199713968C9113971C968C93BA
:100890001C974330510531F414968C9114971D9692
:1008A0008C9302C0F1011586D10118961C921E92FC
:1008B000179716961C921E9215972AC02F5F3F4FCE
:1008C000F1013087278317CF87FF4DC099278D3FD0
:1008D00091055CF48A3F910574F4873F9105F1F02E
:1008E000883F910509F03FC006C0AC014E5F510939
:1008F00042305105C0F5D1011B969C938E931A97F7
:100900001C961C921C971D961C921D9719961C9262
:10091000F101E35FFE4F81E080839FC0F101868596
:10092000803FB9F5C9010196E20FF31F47EF4687F3
:1009300020EF30E0D1011B963C932E931A971C9622
:100940008C931C971D969C931D9719961C92F101F0
:10095000E35FFE4F81E08083F101108617821682EB
:10096000158210827AC0F1018281E20FF31F803F6D
:10097000D9F46686D10115966D907C901697C301C7
:1009800001972817390708F45FC012962C91203F71
:1009900069F4D10118961C921E92179716961C9214
:1009A0001E9215971C9258C06282E4CF822F298331
:1009B0000E9442038C01F101938782870E942E03DB
:1009C0002981882339F0822F8F708F5FD10119968A
:1009D0008C9302C0F1011186D10113968C9113976B
:1009E0001C968C93B3E06B16710421F4F1018481A1
:1009F000858703C0D1011D961C92F10110861782D4
:100A00001682158281E0E35FFE4F8083003B110573
:100A1000A1F054F40039110581F0003A110569F094
:100A20000038110569F409C0003D110531F0003EA0
:100A3000110519F0003C110519F4D1012C9302C0E5
:100A4000F101108281E009C02F5F3F4FD10118965C
:100A50003C932E9317974FCE80E00F90DF91CF916C
:100A60001F910F91FF90EF90DF90CF90BF90AF90CC
:100A70009F908F907F906F905F904F903F902F90BE
:100A80000895AF92BF92CF92DF92FF920F931F9380
:100A9000CF93DF93DC0111962C91213110F0F12CD2
:100AA00001C1EC010E945403F82E8823C1F38A850A
:100AB0009B858039910519F48D85882391F06A858D
:100AC0007B856115710559F3AB01405851094136D9
:100AD000510560F489819985981741F08111DFCF24
:100AE00005C080E890E09B878A87E9CFFE01EE5C35
:100AF000FE4F8081282F217080FFD1C08E7F09F4A6
:100B0000CEC04136510500F509858981081719F0D5
:100B100021E0811120E08081869590E0823091056E
:100B200039F08330910541F0019709F0B8C006C053
:100B3000222309F4B4C002C02111B1C02D854C8517
:100B4000CE010E94C702ABC0FB01E05FF109E031BA
:100B5000F10508F0A4C0EC5CFF4F0C94870DCE01AA
:100B60000E9496029CC08E01025F1F4F68014D8556
:100B700050E0542F44278C859A01282B2F3F3105B4
:100B800019F010F02FEF30E0020F131F5E01BCECE4
:100B9000AB1ABEEFBB0AC016D10609F47CC0F50142
:100BA00080819181D6016D916D01DC01ED91FC9107
:100BB0000190F081E02D0995EECF1C856E01BCEC13
:100BC000CB1ABEEFDB0AF60180819181DC01ED9149
:100BD000FC910190F081E02D63EF0995F601808191
:100BE0009181DC01ED91FC91612F6F770190F08193
:100BF000E02D50C00D85B0E80B9F800111248C853D
:100C0000082B6E01ECECCE1AEEEFDE0AD6018D91C8
:100C10009C91DC01ED91FC910190F081E02D62EF5F
:100C20000995B8016F777727F601808191810E943D
:100C30009D00B801660F672F661F770B71956F7760
:100C40007727D6018D919C910E949D0024C02C8510
:100C50002770B0E12B9F900111241D851F70122B6E
:100C60006E01ECECCE1AEEEFDE0AD6018D919C916E
:100C7000DC01ED91FC910190F081E02D61EF09958F
:100C8000F60180819181DC01ED91FC910190F08170
:100C9000E02D612F0995FE01ED5CFE4F1082CE0123
:100CA0000E94B5018F2DDF91CF911F910F91FF9081
:100CB000DF90CF90BF90AF900895CF93DF93CEE0B9
:100CC000D0E060E080914E010E94E60A8091B80673
:100CD0009091B906BE010E94510DFC01EE0FFF1F5D
:100CE000E45DFE4F208141E060914A0180914C011A
:100CF0000E9476098091B8069091B906BE010E94C3
:100D0000510DFC01EE0FFF1FE05FFE4F208141E01F
:100D100060914A0180914C010E94760961E08091C6
:100D20004E010E94E60A64E670E080E090E00E94D6
:100D3000200A82EC96E00E944105882341F18DE86B
:100D400091E09093D3078093D20782EA91E0909349
:100D5000D1078093D00760E080914E010E94E60A9F
:100D600020E041E060914A0180914C010E947609A7
:100D700020E041E060914A0180914C010E94760997
:100D800061E080914E01DF91CF910C94E60A809151
:100D9000B8069091B90601969093B9068093B8066B
:100DA00090CF0F931F93CF93DF9361E08091560113
:100DB0000E94AA0A61E0809154010E94AA0A60E0A0
:100DC000809152010E94AA0A61E0809150010E9424
:100DD000AA0A61E080914E010E94AA0A61E0809116
:100DE0004C010E94AA0A61E080914A010E94AA0A6D
:100DF00008E411E061E0F80180810E94AA0AC2ECD7
:100E0000D6E042E15AE760E070E08091F607909109
:100E1000F7070E948C0C1092F50785E089831882F1
:100E200018861F821E821D821092CF071B861A868B
:100E300019861C861D86E4EFF7E080818170826050
:100E4000816080830E945D0661E0F8018081DF910E
:100E5000CF911F910F910C94E60A2F923F924F92DF
:100E60005F926F927F928F929F92AF92BF92CF923A
:100E7000DF92EF92FF920F931F93CF93DF9300D0F7
:100E800000D000D0CDB7DEB71E821D82612C712C40
:100E900021E030E0062C01C0220F0A94EAF741E07D
:100EA00060915401809156010E94760960E0809122
:100EB00050010E94E60A61E0809150010E94E60A1A
:100EC00078EBE72E76E0F72E08E716E060E08091F9
:100ED0004A010E94E60A809152010E94160BF70116
:100EE000929382937F0161E080914A010E94E60A19
:100EF000F8E7EF16F6E0FF0649F780E090E0F8012A
:100F0000219131918F01ED81FE81E80FF91FE850A9
:100F1000FA4F3183208302968031910581F780E07A
:100F200090E0ED81FE81E80FF91FE850FB4FDC01F6
:100F3000A858B94F50962D913C91519731832083F9
:100F400002968031910569F780E090E0ED81FE81A5
:100F5000E80FF91FE850FC4FDC01A858B94F9096F4
:100F60002D913C9191973183208302968031910598
:100F700069F780E090E0ED81FE81E80FF91FE8500D
:100F8000FD4FDC01A858B94FD0962D913C91D197D7
:100F90003183208302968031910569F788EF95E0CF
:100FA0009C838B8398EF492E92E0592E28E7822E5E
:100FB00022E0922E38EF232E33E0332E48E7A42E82
:100FC00043E0B42EE8EFF4E0FA83E98358E7C52E56
:100FD00054E0D52E68E7E62E65E0F62E14E2EB81AC
:100FE000FC8180819181F7018130910551F48081EC
:100FF00091810197D9F001E024E6412F60E970E08A
:101000000AC0208131818217930781F001E020E03E
:10101000412F60E870E082EC96E00E94C702EB810D
:10102000FC8180819181F70191838083E981FA813C
:1010300080819181F6018130910551F48081918107
:101040000197D9F002E024E6412F60E970E00AC080
:10105000208131818217930781F002E020E0412F47
:1010600060E870E082EC96E00E94C702E981FA81B4
:1010700080819181F60191838083F101808191814A
:10108000F5018130910551F4808191810197D1F072
:1010900003E024E6412F60E970E00AC0208131813D
:1010A0008217930779F003E020E0412F60E870E0B9
:1010B00082EC96E00E94C702F10180819181F501E6
:1010C00091838083F20180819181F40181309105C7
:1010D00051F4808191810197D1F004E024E6412F01
:1010E00060E970E00AC0208131818217930779F0AE
:1010F00004E020E0412F60E870E082EC96E00E947E
:10110000C702F20180819181F401918380838B81F8
:101110009C8102969C838B831F5F92E0490E511C39
:10112000E2E08E0E911CF2E02F0E311C82E0A80E40
:10113000B11CE981FA813296FA83E983F2E0CF0E9D
:10114000D11C82E0E80EF11C143609F048CF8091E2
:10115000C0060E9459099093BF068093BE06209155
:10116000BC063091BD0682179307E1F097FD079604
:101170009C0183E0359527958A95E1F72093BA067F
:101180003093BB0601E040E160EB70E082EC96E05A
:101190000E94C7028091BE069091BF069093BD0643
:1011A0008093BC069FEF691A790AED81FE817096E3
:1011B000FE83ED83F8E06F16710409F069CE82ECCE
:1011C00096E00E944105882361F08DE891E09093BC
:1011D000D3078093D20782EA91E09093D10780935E
:1011E000D00726960FB6F894DEBF0FBECDBFDF91B5
:1011F000CF911F910F91FF90EF90DF90CF90BF9014
:10120000AF909F908F907F906F905F904F903F90A6
:101210002F90089581E098E09093F7078093F60768
:101220001092D1071092D0071092D3071092D207D4
:101230001092D5071092D4071092D7071092D607B4
:101240001092D9071092D8071092DB071092DA0794
:101250001092DD071092DC071092DF071092DE0774
:101260001092E1071092E0071092E3071092E20754
:101270001092E5071092E4071092E7071092E60734
:101280001092E9071092E8071092EB071092EA0714
:101290001092ED071092EC071092EF071092EE07F4
:1012A0001092F1071092F0071092F3071092F207D4
:1012B00008958E3008F08E5087702091580190E488
:1012C000299F90011124822B80937C0080917A00C9
:1012D000806480937A0080917A0086FDFCCF8091B3
:1012E00078002091790090E0922B0895BF92CF92E0
:1012F000DF92EF92FF920F931F93CF93DF93C82E4D
:10130000D62EB42EC7E0D0E0022F10E087E0E82E02
:10131000F12CB11005C0C7018C1B9D0B980102C0B8
:1013200098018C2F02C0359527958A95E2F7B9016F
:10133000617077278C2D0E94E60A61E08D2D0E9456
:10134000E60A60E08D2D0E94E60A219710F7DF91F2
:10135000CF911F910F91FF90EF90DF90CF90BF90B2
:1013600008951F920F920FB60F9211242F933F935F
:101370008F939F93AF93BF938091F9079091FA0752
:10138000A091FB07B091FC073091F80723E0230FF1
:101390002D3720F40196A11DB11D05C026E8230FAD
:1013A0000296A11DB11D2093F8078093F907909331
:1013B000FA07A093FB07B093FC078091FD0790917B
:1013C000FE07A091FF07B09100080196A11DB11D75
:1013D0008093FD079093FE07A093FF07B09300084A
:1013E000BF91AF919F918F913F912F910F900FBE21
:1013F0000F901F9018953FB7F8948091FD0790913A
:10140000FE07A091FF07B091000826B5A89B05C074
:101410002F3F19F00196A11DB11D3FBFBA2FA92F73
:10142000982F8827820F911DA11DB11DBC01CD01F0
:1014300042E0660F771F881F991F4A95D1F70895DC
:10144000CF92DF92EF92FF92CF93DF936B017C01FB
:101450000E94FB09EB01C114D104E104F10479F00D
:101460000E94FB096C1B7D0B683E7340A0F381E07A
:10147000C81AD108E108F108C851DC4FECCFDF9160
:10148000CF91FF90EF90DF90CF900895789484B53E
:10149000826084BD84B5816084BD85B5826085BD70
:1014A00085B5816085BDEEE6F0E080818160808356
:1014B000E1E8F0E010828081826080838081816039
:1014C0008083E0E8F0E0808181608083E1EBF0E000
:1014D000808184608083E0EBF0E0808181608083A4
:1014E000EAE7F0E08081846080838081826080838D
:1014F0008081816080838081806880831092C100B8
:101500000895833081F028F4813099F08230A1F081
:1015100008958630A9F08730B9F08430D1F48091F5
:1015200080008F7D03C0809180008F778093800042
:10153000089584B58F7702C084B58F7D84BD0895EA
:101540008091B0008F7703C08091B0008F7D809331
:10155000B0000895CF93DF9390E0FC01E456FF4F75
:101560002491FC01E055FF4F8491882361F190E0C4
:10157000880F991FFC01E852FF4FC591D491FC01DF
:10158000E253FF4FA591B491611109C09FB7F89440
:101590008881209582238883EC912E230BC06230B2
:1015A00061F49FB7F8943881822F809583238883D4
:1015B000EC912E2B2C939FBF06C08FB7F894E88137
:1015C0002E2B28838FBFDF91CF9108951F93CF9348
:1015D000DF93282F30E0F901E857FF4F8491F9019C
:1015E000E456FF4FD491F901E055FF4FC491CC234D
:1015F000C9F0162F81110E94810AEC2FF0E0EE0F46
:10160000FF1FE253FF4FA591B4918FB7F8941111CA
:1016100005C09C91ED2FE095E92302C0EC91ED2BE4
:10162000EC938FBFDF91CF911F910895CF93DF93FC
:10163000282F30E0F901E857FF4F8491F901E45673
:10164000FF4FD491F901E055FF4FC491CC2391F0A5
:1016500081110E94810AEC2FF0E0EE0FFF1FEC5386
:10166000FF4FA591B491EC91ED2381E090E021F43E
:1016700080E002C080E090E0DF91CF910895CF92AA
:10168000DF92EF92FF920F931F93CF93DF936C0142
:10169000EB017B01E40EF51E00E010E0CE15DF0546
:1016A00061F06991D601ED91FC910190F081E02DFE
:1016B000C6010995080F191FF1CFC801DF91CF911D
:1016C0001F910F91FF90EF90DF90CF9008950E94AF
:1016D000460A0E94D106C8E4DCE00E942D0720974C
:1016E000E1F30E94480CF9CFFC0124853585F9010E
:1016F000E05CFF4F80819181329620813181821B95
:10170000930B8F7399270895DC011C96ED91FC9142
:101710001D97DF01A05CBF4F2D913C911197129650
:101720008D919C9111972817390739F08D919C91D3
:10173000E80FF91F808190E008958FEF9FEF0895E3
:10174000FC01A485B585FD01E05CFF4F208131815E
:101750003296808191812817390779F080819181B3
:10176000A80FB91F8C91208131812F5F3F4F2F73BC
:1017700033273183208390E008958FEF9FEF089502
:10178000FC0181A1882329F0A489B5898C9186FF69
:10179000FBCF11A208950F931F93CF93DF93FC010A
:1017A000A685B7858D01005C1F4FE801888199816E
:1017B00001968F739927AD014E5B5F4FEA01288137
:1017C000398182179307D1F3E80128813981A20F6B
:1017D000B31F6C93A685B785A05CBF4F11969C93F1
:1017E0008E93A689B7892C9181E090E0078C02C086
:1017F000880F991F0A94E2F7822B8C9381E081A3D2
:101800000488F589E02D80818064808381E090E008
:10181000DF91CF911F910F91089508951F920F921C
:101820000FB60F9211242F934F935F938F939F9333
:10183000EF93FF938091C00082FD1CC02091C600F1
:101840008091A7089091A80801968F7399274091DD
:10185000A9085091AA088417950771F0E091A7088C
:10186000F091A808E959F74F20839093A808809336
:10187000A70802C08091C600FF91EF919F918F91C0
:101880005F914F912F910F900FBE0F901F90189561
:1018900081E098E00E94740B892B11F00C940D0CE0
:1018A00008951F920F920FB60F9211242F933F931A
:1018B0008F939F93EF93FF93209163083091640877
:1018C00080916508909166082817390731F4809156
:1018D000C1008F7D8093C10014C0E0916508F09134
:1018E0006608ED5DF74F208180916508909166084C
:1018F00001968F73992790936608809365082093CB
:10190000C600FF91EF919F918F913F912F910F9082
:101910000FBE0F901F901895CF92DF92EF92FF921B
:101920000F931F93CF93DF93EC016A017B01411565
:1019300081EE58076105710511F1EC89FD8981E09F
:1019400090E008A002C0880F991F0A94E2F78083F4
:1019500060E079E08DE390E0A70196010E94650DBB
:1019600089019A01015011092109310936952795FC
:10197000179507959801011580E11807A8F0EC89E3
:10198000FD89108260E874E88EE190E0A70196017D
:101990000E94650DDA01C9010197A109B109B69547
:1019A000A795979587959C01E889F9893083EA89FD
:1019B000FB89208319A2EE89FF89408181E090E0B4
:1019C0009C010C8C02C0220F331F0A94E2F7242BD7
:1019D0002083EE89FF8940819C010D8C02C0220F7B
:1019E000331F0A94E2F7242B2083EE89FF8940817C
:1019F0009C010E8C02C0220F331F0A94E2F7242BA5
:101A00002083EE89FF8920810F8C02C0880F991FE7
:101A10000A94E2F7809582238083DF91CF911F9112
:101A20000F91FF90EF90DF90CF900895E1E0F8E004
:101A30001382128288EE93E0A0E0B0E08483958365
:101A4000A683B7838DE591E09183808387E698E054
:101A50009587848783E298E09787868785EC90E076
:101A6000918B808B84EC90E0938B828B80EC90E068
:101A7000958B848B81EC90E0978B868B82EC90E049
:101A8000918F808F86EC90E0938F828F84E0848F9B
:101A900083E0858F87E0868F85E0878F81E080A354
:101AA000089597FB072E16F4009407D077FD09D010
:101AB0000E948D0D07FC05D03EF4909581959F4FB7
:101AC0000895709561957F4F0895A1E21A2EAA1B83
:101AD000BB1BFD010DC0AA1FBB1FEE1FFF1FA217DE
:101AE000B307E407F50720F0A21BB30BE40BF50BDB
:101AF000661F771F881F991F1A9469F76095709564
:101B0000809590959B01AC01BD01CF010895EE0F2A
:101B1000FF1F0590F491E02D0994AA1BBB1B51E116
:101B200007C0AA1FBB1FA617B70710F0A61BB70B4D
:101B3000881F991F5A95A9F780959095BC01CD01F2
:061B40000895F894FFCFA8
:101B46000100020004000800100020004000800090
:101B56000100020004000800100020004000800080
:101B660040002000100008000400020001000200EE
:101B76000400080010002000400080004000200003
:101B8600100008000400020007000D000B00090009
:101B96000A000C00030002000100000000CB0B3F0E
:0A1BA6000B740BA00B840BC00B00A6
:00000001FF
