:100000000C9473000C949B000C949B000C949B002C
:100010000C949B000C949B000C949B000C949B00F4
:100020000C949B000C949B000C949B000C949B00E4
:100030000C949B000C949B000C949B000C949B00D4
:100040000C94D3080C949B000C94300B0C94730B01
:100050000C949B000C949B000C949B000C949B00B4
:100060000C949B000C949B001105850558053B05DD
:10007000AD05AD050D05AD050D05AD050D050D0570
:100080000D05AD050D050D0500000007000201007E
:100090000003040600000000000000000102040844
:1000A00010204080010204081020010204081020E2
:1000B000040404040404040402020202020203030E
:1000C00003030303000000002300260029000000B2
:1000D0000000250028002B0000000000240027005D
:1000E0002A004908380C11241FBECFEFD8E0DEBF2C
:1000F000CDBF11E0A0E0B1E0EAE3F9E102C0059074
:100100000D92A033B107D9F718E0A0E3B1E001C028
:100110001D92A936B107E1F710E0C6EED0E004C0A9
:100120002297FE010E94970CC23ED107C9F70E9498
:10013000890A0C949B0C0C940000DC01ED91FC915D
:100140000190F081E02D0994CF93DF93C6E8D1E0D0
:10015000E0E0F1E0DF0180E090E0699179914D917C
:100160005D91649F9001659F300D749F300D112447
:10017000820F931F21E0A031B20779F790933101EC
:1001800080933001A6E9B1E080E090E06D917D912F
:1001900041915191649F9001659F300D749F300D86
:1001A0001124820F931F21E0E031F20779F7909339
:1001B0003D0180933C01909333018093320160E0D4
:1001C000809116010E94080A2091320141E060915D
:1001D0001201809114010E9498082091300141E0A1
:1001E00060911201809114010E94980861E0809151
:1001F0001601DF91CF910C94080AE62FF0E0EE0F84
:10020000FF1FE25CFE4F81E090E0918380830C94BD
:10021000A400E62FF0E0EE0FFF1FE25CFE4F11821C
:1002200010820C94A400DC011A968D919C911B976E
:10023000813F910509F4A9C034F5803B910509F48B
:1002400053C07CF480399105E1F1803A910509F4BD
:1002500069C08038910509F0C6C0FD01E25FFE4F1C
:1002600064C0803D910509F46FC02CF4803C910579
:1002700009F46EC00895803E9105D1F1803F91054B
:1002800009F475C008958A3F910511F174F4833F14
:10029000910509F493C00CF47CC0863F910509F4E4
:1002A00098C0883F910589F008958C3F9105B1F081
:1002B00094F08E3F9105A9F08F3F910509F48CC011
:1002C0000895FD01E05FFE4F30C0AA5DBE4F86C0BD
:1002D000A85DBE4F83C0A65DBE4F80C0A45DBE4F6B
:1002E0007DC0A25DBE4F7AC0FD01EC5EFE4F1DC019
:1002F000FD01E65EFE4F0190F081E02D309709F49C
:1003000072C01D966C911D976F7720E8629FB001B7
:1003100011241C968C911C978F77682B705219961C
:100320008C910994FD01EE5EFE4F0190F081E02D6D
:10033000309709F458C01D964C911D971C966C91EE
:100340001C9719968C910994FD01E85EFE4F03C03D
:10035000FD01EA5EFE4F0190F081E02D309709F437
:1003600042C01C966C911C9719968C910994FD01C2
:10037000E45EFE4F0190F081E02D3097A1F11C96D4
:100380006C911C97CD010E960994FD01E25EFE4F23
:1003900018C0FD01E05EFE4F0190F081E02D309726
:1003A00011F11D968C911D978F7720E8829FC001D7
:1003B00011241C962C912F77822B0994FD01EE5D60
:1003C000FE4F0190F081E02D309769F01C968C91E2
:1003D0000994AC5DBE4F02C0A05DBE4FED91FC9193
:1003E000309709F0099408950F931F93CF93DF93EB
:1003F0008C01EB016D3F710554F46A3F710564F4A3
:10040000663F710549F0683F710599F405C0CB015D
:100410008E5F9109029768F4F801EC5CFE4F8081D1
:100420009181DC01ED91FC910190F081E02D6C2F28
:100430000995C63FD10521F4F801ED5CFE4F10820D
:10044000DF91CF911F910F910895DF92EF92FF926C
:100450000F931F93CF93DF937B01122F0150003135
:1004600018F4603871052CF4FC01ED5CFE4F10822D
:100470004BC0613E7105CCF54F77D42E602F6E29AD
:10048000FC01ED5CFE4F2081EC01CC5CDE4F2617B9
:1004900051F0608388819981DC01ED91FC9101909C
:1004A000F081E02D099588819981DC01ED91FC9125
:1004B0000190F081E02D6D2D0995E894E4F8B0EC01
:1004C000EB16F10409F188819981DC01ED91FC9131
:1004D000612F6F770190F081E02DDF91CF911F9117
:1004E0000F91FF90EF90DF9009949B01265F3109F7
:1004F0002A30310548F4DF91CF911F910F91FF9081
:10050000EF90DF900C94F401DF91CF911F910F9148
:10051000FF90EF90DF9008959C018F7C80389105CB
:1005200061F0203D310549F081E0203E310539F090
:10053000203C310521F080E0089581E00895089580
:1005400087FF0DC09CE0980F923048F0982F9B7F5A
:10055000993F29F0803F08F4807F90E0089580E083
:1005600090E008952F923F924F925F926F927F9208
:100570008F929F92AF92BF92CF92DF92EF92FF92B3
:100580000F931F93CF93DF931F92CDB7DEB71C015C
:100590008C010C5C1E4F82E0E82EF12C93E0C92EFA
:1005A000D12CAA24AA94B12C30EF532E8824839402
:1005B000912CD8018D919C91DC01ED91FC910480EE
:1005C000F581E02D0995892B09F4A4C1F8018081FA
:1005D0009181DC01ED91FC910680F781E02D099578
:1005E0003C01F101278130852115310509F0CAC090
:1005F00082834080842D0E94A0020E948C02882366
:1006000069F067FC0BC0D10112964C9212971396B9
:100610006C92139718969C928E921797F1017280A4
:10062000872D0E94A002813F910509F45EC06CF500
:10063000803B910509F45FC06CF48039910509F4A1
:100640005AC0803A910509F456C08038910509F0E6
:1006500056C051C0803D910509F447C02CF4803C40
:10066000910509F442C04BC0803E910509F443C096
:10067000803F910509F043C0D1011696BC92AE921D
:1006800015971C921E965C9241C0883F9105A9F077
:1006900044F4833F910549F174F1863F910569F077
:1006A0002EC08A3F91055CF18D3F910534F09C018D
:1006B0002E5F31092230310510F5D1011B969C9334
:1006C0008E931A9719961C9219971C961C921C9738
:1006D0001D961C92F101E35FFE4F81E08083F101E2
:1006E000108617821682158216C1D1011696FC92C9
:1006F000EE9215970BC0F101D682C58207C0F101B9
:100700001086178216821582108204C1D1011796B5
:100710002D913C91189715964D915C911697BA01C1
:10072000615071092617370738F11B969C938E93F9
:100730001A97872D8F7077247394780E19967C9270
:10074000199713968C9113971C968C931C97433092
:10075000510531F414968C9114971D968C9302C018
:10076000F1011586D10118961C921E9217971696C4
:100770001C921E9215972AC02F5F3F4FF1013087C0
:10078000278317CF87FF4DC099278D3F91055CF4D4
:100790008A3F910574F4873F9105F1F0883F9105F8
:1007A00009F03FC006C0AC014E5F5109423051050F
:1007B000C0F5D1011B969C938E931A971C961C92A0
:1007C0001C971D961C921D9719961C92F101E35FD0
:1007D000FE4F81E080839FC0F1018685803FB9F59F
:1007E000C9010196E20FF31F47EF468720EF30E083
:1007F000D1011B963C932E931A971C968C931C97B1
:100800001D969C931D9719961C92F101E35FFE4F74
:1008100081E08083F1011086178216821582108292
:100820007AC0F1018281E20FF31F803FD9F466861E
:10083000D10115966D907C901697C30101972817EA
:10084000390708F45FC012962C91203F69F4D1015A
:1008500018961C921E92179716961C921E92159728
:100860001C9258C06282E4CF822F29830E94A0028A
:100870008C01F101938782870E948C022981882351
:1008800039F0822F8F708F5FD10119968C9302C03F
:10089000F1011186D10113968C9113971C968C93BC
:1008A000B3E06B16710421F4F1018481858703C0E4
:1008B000D1011D961C92F1011086178216821582B5
:1008C00081E0E35FFE4F8083003B1105A1F054F40B
:1008D0000039110581F0003A110569F00038110561
:1008E00069F409C0003D110531F0003E110519F011
:1008F000003C110519F4D1012C9302C0F1011082C2
:1009000081E009C02F5F3F4FD10118963C932E9391
:1009100017974FCE80E00F90DF91CF911F910F91ED
:10092000FF90EF90DF90CF90BF90AF909F908F900F
:100930007F906F905F904F903F902F900895AF926F
:10094000BF92CF92DF92FF920F931F93CF93DF93CB
:10095000DC0111962C91213110F0F12C01C1EC0138
:100960000E94B202F82E8823C1F38A859B858039C4
:10097000910519F48D85882391F06A857B85611531
:10098000710559F3AB01405851094136510560F4E6
:1009900089819985981741F08111DFCF05C080E8E2
:1009A00090E09B878A87E9CFFE01EE5CFE4F808155
:1009B000282F217080FFD1C08E7F09F4CEC0413630
:1009C000510500F509858981081719F021E0811189
:1009D00020E08081869590E08230910539F0833067
:1009E000910541F0019709F0B8C006C0222309F42F
:1009F000B4C002C02111B1C02D854C85CE010E942A
:100A00002502ABC0FB01E05FF109E031F10508F020
:100A1000A4C0EC5CFF4F0C94950CCE010E94F40135
:100A20009CC08E01025F1F4F68014D8550E0542F1E
:100A300044278C859A01282B2F3F310519F010F09F
:100A40002FEF30E0020F131F5E01BCECAB1ABEEFBC
:100A5000BB0AC016D10609F47CC0F50180819181E2
:100A6000D6016D916D01DC01ED91FC910190F08159
:100A7000E02D0995EECF1C856E01BCECCB1ABEEFC4
:100A8000DB0AF60180819181DC01ED91FC910190FE
:100A9000F081E02D63EF0995F60180819181DC0101
:100AA000ED91FC91612F6F770190F081E02D50C0A6
:100AB0000D85B0E80B9F800111248C85082B6E01F9
:100AC000ECECCE1AEEEFDE0AD6018D919C91DC01A2
:100AD000ED91FC910190F081E02D62EF0995B80154
:100AE0006F777727F601808191810E949D00B80180
:100AF000660F672F661F770B71956F777727D60183
:100B00008D919C910E949D0024C02C852770B0E19E
:100B10002B9F900111241D851F70122B6E01ECEC90
:100B2000CE1AEEEFDE0AD6018D919C91DC01ED919B
:100B3000FC910190F081E02D61EF0995F601808133
:100B40009181DC01ED91FC910190F081E02D612F0C
:100B50000995FE01ED5CFE4F1082CE010E9413014B
:100B60008F2DDF91CF911F910F91FF90DF90CF904C
:100B7000BF90AF90089560E0809116010E94080A2E
:100B800020917E0641E060911201809114010E9443
:100B9000980820917E0641E0609112018091140135
:100BA0000E94980861E0809116010E94080A64E69C
:100BB00070E080E090E00E94420980E896E00E94A8
:100BC0009F0481110AC080917E0690917F06019654
:100BD00090937F0680937E06CECF60E080911601D1
:100BE0000E94080A20E041E0609112018091140106
:100BF0000E94980820E041E0609112018091140168
:100C00000E94980861E0809116010C94080ACF9325
:100C1000DF9361E080911E010E94CC0961E0809128
:100C20001C010E94CC0960E080911A010E94CC094D
:100C300061E0809118010E94CC0961E08091160169
:100C40000E94CC0961E0809114010E94CC0961E00E
:100C5000809112010E94CC0961E0809110010E94F4
:100C6000CC09C0E8D6E042E15AE760E070E080914C
:100C7000B4079091B5070E94AE0B1092B30785E0C0
:100C80008983188218861F821E821D8210928D070A
:100C90001B861A8619861C861D86E2EBF7E080818A
:100CA0008170826081608083DF91CF910C94BB055D
:100CB0002F923F924F925F926F927F928F929F926C
:100CC000AF92BF92CF92DF92EF92FF920F931F935A
:100CD000CF93DF93CDB7DEB72A970FB6F894DEBF78
:100CE0000FBECDBF8EEB95E09E838D83AEEBB2E061
:100CF000B887AF83612C712C812C912C21E030E0DE
:100D0000082C01C0220F0A94EAF741E060911C010F
:100D100080911E010E94980860E0809118010E9455
:100D2000080A61E0809118010E94080A5EE7E52E3A
:100D300056E0F52E0EE316E060E0809112010E946D
:100D4000080A80911A010E94380AF701929382934F
:100D50007F0161E0809112010E94080AFEE3EF1614
:100D6000F6E0FF0649F780E090E0D8012D913D9133
:100D70008D01ED81FE81E80FF91F318320834096BC
:100D80008038910591F780E090E0FC01E60DF71DB9
:100D9000E254FB4FDC01A25CB94F50962D913C917F
:100DA00051973183208302968031910571F780E05D
:100DB00090E0FC01E60DF71DE254FC4FDC01A25C63
:100DC000B94F90962D913C91919731832083029653
:100DD0008031910571F7EEE6F6E080E090E0219138
:100DE00031914F815885480F591FDA012D933C935B
:100DF00040968038910599F78EE3A82E82E0B82EB0
:100E00009EEB492E93E0592E2EE3C22E23E0D22EE4
:100E10003EEB232E34E0332E4EE3E42E44E0F42E5A
:100E2000EEE3F5E0FA87E9878EEB92E09C838B8313
:100E3000AEEBB5E0BA83A98314E2E981FA8180813F
:100E4000918181309105C1F4A985BA858D919C91DC
:100E5000019751F101E024E6412F60E970E080E85C
:100E600096E00E942502E981FA8180819181A9851D
:100E7000BA858D939C9318C0E985FA8520813181CC
:100E80008217930789F001E020E0412F60E870E0CD
:100E900080E896E00E942502A981BA818D919C91FB
:100EA000E985FA8591838083D1018D919C91813070
:100EB0009105A9F4F70180819181019729F102E060
:100EC00024E6412F60E970E080E896E00E94250268
:100ED000D1018D919C91F7019183808315C0D70139
:100EE0002D913C918217930779F002E020E0412F89
:100EF00060E870E080E896E00E942502F1018081C0
:100F00009181D7018D939C93F201808191818130F1
:100F10009105A9F4D6018D919C91019729F103E0E7
:100F200024E6412F60E970E080E896E00E94250207
:100F3000F20180819181D6018D939C9315C0F601B9
:100F4000208131818217930779F003E020E0412F5F
:100F500060E870E080E896E00E942502D2018D9161
:100F60009C91F60191838083AB81BC818D919C9192
:100F700081309105B1F4F50180819181019739F1BA
:100F800004E024E6412F60E970E080E896E00E94EA
:100F90002502AB81BC818D919C91F5019183808369
:100FA00016C0D5012D913C918217930781F004E082
:100FB00020E0412F60E870E080E896E00E94250282
:100FC000EB81FC8180819181D5018D939C93E98196
:100FD000FA813296FA83E9831F5F8B819C810296A6
:100FE0009C838B8392E0A90EB11CA2E04A0E511C97
:100FF000B2E0CB0ED11CE2E02E0E311CF2E0EF0E7F
:10100000F11C89859A8502969A878987143609F09A
:1010100014CF9FEF891A990AAF81B8851296B887C5
:10102000AF83B0E16B0E711CED81FE813296FE83C1
:10103000ED83F8E08F16910409F060CE80E896E029
:101040000E949F04882361F08DEF90E090939107B8
:101050008093900789E091E090938F0780938E07AB
:101060002A960FB6F894DEBF0FBECDBFDF91CF91A9
:101070001F910F91FF90EF90DF90CF90BF90AF90B6
:101080009F908F907F906F905F904F903F902F90A8
:1010900008958FEB97E09093B5078093B407109273
:1010A0008F0710928E07109291071092900710925E
:1010B000930710929207109295071092940710923E
:1010C000970710929607109299071092980710921E
:1010D0009B0710929A0710929D0710929C071092FE
:1010E0009F0710929E071092A1071092A0071092DE
:1010F000A3071092A2071092A5071092A4071092BE
:10110000A7071092A6071092A9071092A80710929D
:10111000AB071092AA071092AD071092AC0710927D
:10112000AF071092AE071092B1071092B007089562
:10113000BF92CF92DF92EF92FF920F931F93CF93C4
:10114000DF93C82ED62EB42EC7E0D0E0022F10E0D9
:1011500087E0E82EF12CB11005C0C7018C1B9D0B58
:10116000980102C098018C2F02C0359527958A9569
:10117000E2F7B901617077278C2D0E94080A61E0BF
:101180008D2D0E94080A60E08D2D0E94080A21978B
:1011900010F7DF91CF911F910F91FF90EF90DF90AB
:1011A000CF90BF9008951F920F920FB60F92112407
:1011B0002F933F938F939F93AF93BF938091B707E4
:1011C0009091B807A091B907B091BA073091B607CE
:1011D00023E0230F2D3720F40196A11DB11D05C07A
:1011E00026E8230F0296A11DB11D2093B607809318
:1011F000B7079093B807A093B907B093BA07809147
:10120000BB079091BC07A091BD07B091BE070196A6
:10121000A11DB11D8093BB079093BC07A093BD0790
:10122000B093BE07BF91AF919F918F913F912F9146
:101230000F900FBE0F901F9018953FB7F8948091B4
:10124000BB079091BC07A091BD07B091BE0726B522
:10125000A89B05C02F3F19F00196A11DB11D3FBFEE
:10126000BA2FA92F982F8827820F911DA11DB11D7C
:10127000BC01CD0142E0660F771F881F991F4A9578
:10128000D1F70895CF92DF92EF92FF92CF93DF9341
:101290006B017C010E941D09EB01C114D104E10422
:1012A000F10479F00E941D096C1B7D0B683E7340B0
:1012B000A0F381E0C81AD108E108F108C851DC4F59
:1012C000ECCFDF91CF91FF90EF90DF90CF9008951A
:1012D000789484B5826084BD84B5816084BD85B511
:1012E000826085BD85B5816085BDEEE6F0E08081D8
:1012F00081608083E1E8F0E01082808182608083F9
:10130000808181608083E0E8F0E08081816080837B
:10131000E1EBF0E0808184608083E0EBF0E08081AD
:1013200081608083EAE7F0E080818460808380814F
:1013300082608083808181608083808180688083F7
:101340001092C1000895833081F028F4813099F023
:101350008230A1F008958630A9F08730B9F084304A
:10136000D1F4809180008F7D03C0809180008F77C1
:1013700080938000089584B58F7702C084B58F7DF7
:1013800084BD08958091B0008F7703C08091B00034
:101390008F7D8093B0000895CF93DF9390E0FC01A0
:1013A000E456FF4F2491FC01E055FF4F84918823C0
:1013B00061F190E0880F991FFC01E852FF4FC59141
:1013C000D491FC01E253FF4FA591B491611109C082
:1013D0009FB7F8948881209582238883EC912E23EF
:1013E0000BC0623061F49FB7F8943881822F8095EA
:1013F00083238883EC912E2B2C939FBF06C08FB73D
:10140000F894E8812E2B28838FBFDF91CF91089528
:101410001F93CF93DF93282F30E0F901E857FF4F58
:101420008491F901E456FF4FD491F901E055FF4F43
:10143000C491CC23C9F0162F81110E94A309EC2F6F
:10144000F0E0EE0FFF1FE253FF4FA591B4918FB76D
:10145000F894111105C09C91ED2FE095E92302C08D
:10146000EC91ED2BEC938FBFDF91CF911F910895FD
:10147000CF93DF93282F30E0F901E857FF4F849195
:10148000F901E456FF4FD491F901E055FF4FC491A3
:10149000CC2391F081110E94A309EC2FF0E0EE0F14
:1014A000FF1FEC53FF4FA591B491EC91ED2381E028
:1014B00090E021F480E002C080E090E0DF91CF91E5
:1014C0000895CF92DF92EF92FF920F931F93CF93E5
:1014D000DF936C01EB017B01E40EF51E00E010E0F0
:1014E000CE15DF0561F06991D601ED91FC91019077
:1014F000F081E02DC6010995080F191FF1CFC80131
:10150000DF91CF911F910F91FF90EF90DF90CF90DF
:1015100008950E9468090E940706CAE6DBE00E945F
:1015200058062097E1F30E946A0BF9CFFC0124854D
:101530003585F901E05CFF4F8081918132962081F1
:101540003181821B930B8F7399270895DC011C96C0
:10155000ED91FC911D97DF01A05CBF4F2D913C9157
:10156000119712968D919C9111972817390739F090
:101570008D919C91E80FF91F808190E008958FEF85
:101580009FEF0895FC01A485B585FD01E05CFF4F48
:10159000208131813296808191812817390779F035
:1015A00080819181A80FB91F8C91208131812F5F9B
:1015B0003F4F2F7333273183208390E008958FEFBF
:1015C0009FEF0895FC0181A1882329F0A489B589A2
:1015D0008C9186FFFBCF11A208950F931F93CF9399
:1015E000DF93FC01A685B7858D01005C1F4FE801E4
:1015F0008881998101968F739927AD014E5B5F4F6A
:10160000EA012881398182179307D1F3E801288103
:101610003981A20FB31F6C93A685B785A05CBF4F1D
:1016200011969C938E93A689B7892C9181E090E0C6
:10163000078C02C0880F991F0A94E2F7822B8C93C3
:1016400081E081A30488F589E02D80818064808316
:1016500081E090E0DF91CF911F910F91089508955F
:101660001F920F920FB60F9211242F934F935F93F7
:101670008F939F93EF93FF938091C00082FD1CC0D6
:101680002091C600809165089091660801968F733D
:10169000992740916708509168088417950771F061
:1016A000E0916508F0916608EB5DF74F2083909319
:1016B00066088093650802C08091C600FF91EF9193
:1016C0009F918F915F914F912F910F900FBE0F902F
:1016D0001F9018958FEB97E00E94960A892B11F0C6
:1016E0000C942F0B08951F920F920FB60F92112496
:1016F0002F933F938F939F93EF93FF932091210814
:1017000030912208809123089091240828173907E6
:1017100031F48091C1008F7D8093C10014C0E091AD
:101720002308F0912408EF51F84F2081809123087D
:101730009091240801968F739927909324088093A1
:1017400023082093C600FF91EF919F918F913F91C5
:101750002F910F900FBE0F901F901895CF92DF9290
:10176000EF92FF920F931F93CF93DF93EC016A01E7
:101770007B01411581EE58076105710511F1EC8976
:10178000FD8981E090E008A002C0880F991F0A94AB
:10179000E2F7808360E079E08DE390E0A7019601B5
:1017A0000E94730C89019A01015011092109310924
:1017B00036952795179507959801011580E118072B
:1017C000A8F0EC89FD89108260E874E88EE190E071
:1017D000A70196010E94730CDA01C9010197A109C2
:1017E000B109B695A795979587959C01E889F989E0
:1017F0003083EA89FB89208319A2EE89FF89408121
:1018000081E090E09C010C8C02C0220F331F0A94EF
:10181000E2F7242B2083EE89FF8940819C010D8C07
:1018200002C0220F331F0A94E2F7242B2083EE8993
:10183000FF8940819C010E8C02C0220F331F0A9445
:10184000E2F7242B2083EE89FF8920810F8C02C0D0
:10185000880F991F0A94E2F7809582238083DF9195
:10186000CF911F910F91FF90EF90DF90CF9008954F
:10187000EFEBF7E01382128288EE93E0A0E0B0E095
:1018800084839583A683B78384E291E091838083E8
:1018900085E298E09587848781EE97E09787868731
:1018A00085EC90E0918B808B84EC90E0938B828B25
:1018B00080EC90E0958B848B81EC90E0978B868B0D
:1018C00082EC90E0918F808F86EC90E0938F828FF6
:1018D00084E0848F83E0858F87E0868F85E0878F23
:1018E00081E080A30895A1E21A2EAA1BBB1BFD0173
:1018F0000DC0AA1FBB1FEE1FFF1FA217B307E407EF
:10190000F50720F0A21BB30BE40BF50B661F771F46
:10191000881F991F1A9469F7609570958095909526
:101920009B01AC01BD01CF010895EE0FFF1F059093
:0A193000F491E02D0994F894FFCF24
:10193A00010002000400080010002000400080009E
:10194A0007000D000B0009000A000C00030002004A
:10195A0000000000ED0A610A960AC20AA60AE20A13
:00000001FF
